No.     Time           Source                Destination           Protocol Length Info
   1404 22.878431      1.13.1                host                  USB      94     URB_INTERRUPT in

Frame 1404: 94 bytes on wire (752 bits), 94 bytes captured (752 bits) on interface 0
USB URB
    [Source: 1.13.1]
    [Destination: host]
    URB id: 0xffff9544e4c31900
    URB type: URB_COMPLETE ('C')
    URB transfer type: URB_INTERRUPT (0x01)
    Endpoint: 0x81, Direction: IN
    Device: 13
    URB bus id: 1
    Device setup request: not relevant ('-')
    Data: present (0)
    URB sec: 1604310225
    URB usec: 707452
    URB status: Success (0)
    URB length [bytes]: 30
    Data length [bytes]: 30
    [Request in: 1399]
    [Time from request: 0.061704000 seconds]
    [bInterfaceClass: Unknown (0xffff)]
    Unused Setup Header
    Interval: 2
    Start frame: 0
    Copy of Transfer Flags: 0x00000204
    Number of ISO descriptors: 0
Leftover Capture Data: 23b50f4fe8f95eff2400321010000100f5ffd192c013f5ff...

0000  00 19 c3 e4 44 95 ff ff 43 01 81 0d 01 00 2d 00   ....D...C.....-.
0010  d1 d4 9f 5f 00 00 00 00 7c cb 0a 00 00 00 00 00   ..._....|.......
0020  1e 00 00 00 1e 00 00 00 00 00 00 00 00 00 00 00   ................
0030  02 00 00 00 00 00 00 00 04 02 00 00 00 00 00 00   ................
0040  23 b5 0f 4f e8 f9 5e ff 24 00 32 10 10 00 01 00   #..O..^.$.2.....
0050  f5 ff d1 92 c0 13 f5 ff de 3b c0 42 00 00         .........;.B..

No.     Time           Source                Destination           Protocol Length Info
   1411 22.886442      1.13.1                host                  USB      94     URB_INTERRUPT in

Frame 1411: 94 bytes on wire (752 bits), 94 bytes captured (752 bits) on interface 0
USB URB
    [Source: 1.13.1]
    [Destination: host]
    URB id: 0xffff9544e4c31900
    URB type: URB_COMPLETE ('C')
    URB transfer type: URB_INTERRUPT (0x01)
    Endpoint: 0x81, Direction: IN
    Device: 13
    URB bus id: 1
    Device setup request: not relevant ('-')
    Data: present (0)
    URB sec: 1604310225
    URB usec: 715463
    URB status: Success (0)
    URB length [bytes]: 30
    Data length [bytes]: 30
    [Request in: 1405]
    [Time from request: 0.007989000 seconds]
    [bInterfaceClass: Unknown (0xffff)]
    Unused Setup Header
    Interval: 2
    Start frame: 0
    Copy of Transfer Flags: 0x00000204
    Number of ISO descriptors: 0
Leftover Capture Data: 23b50f52e8e465ff2e002f1011000000f5ff2200ddfc0000...

0000  00 19 c3 e4 44 95 ff ff 43 01 81 0d 01 00 2d 00   ....D...C.....-.
0010  d1 d4 9f 5f 00 00 00 00 c7 ea 0a 00 00 00 00 00   ..._............
0020  1e 00 00 00 1e 00 00 00 00 00 00 00 00 00 00 00   ................
0030  02 00 00 00 00 00 00 00 04 02 00 00 00 00 00 00   ................
0040  23 b5 0f 52 e8 e4 65 ff 2e 00 2f 10 11 00 00 00   #..R..e.../.....
0050  f5 ff 22 00 dd fc 00 00 1a 02 07 02 09 b5         .."...........

No.     Time           Source                Destination           Protocol Length Info
   1418 22.888452      1.13.1                host                  USB      94     URB_INTERRUPT in

Frame 1418: 94 bytes on wire (752 bits), 94 bytes captured (752 bits) on interface 0
USB URB
    [Source: 1.13.1]
    [Destination: host]
    URB id: 0xffff9544e4c31900
    URB type: URB_COMPLETE ('C')
    URB transfer type: URB_INTERRUPT (0x01)
    Endpoint: 0x81, Direction: IN
    Device: 13
    URB bus id: 1
    Device setup request: not relevant ('-')
    Data: present (0)
    URB sec: 1604310225
    URB usec: 717473
    URB status: Success (0)
    URB length [bytes]: 30
    Data length [bytes]: 30
    [Request in: 1412]
    [Time from request: 0.001989000 seconds]
    [bInterfaceClass: Unknown (0xffff)]
    Unused Setup Header
    Interval: 2
    Start frame: 0
    Copy of Transfer Flags: 0x00000204
    Number of ISO descriptors: 0
Leftover Capture Data: 23b50f55e8cf5fff24002c1011000000f5ff9b15b4ed0000...

0000  00 19 c3 e4 44 95 ff ff 43 01 81 0d 01 00 2d 00   ....D...C.....-.
0010  d1 d4 9f 5f 00 00 00 00 a1 f2 0a 00 00 00 00 00   ..._............
0020  1e 00 00 00 1e 00 00 00 00 00 00 00 00 00 00 00   ................
0030  02 00 00 00 00 00 00 00 04 02 00 00 00 00 00 00   ................
0040  23 b5 0f 55 e8 cf 5f ff 24 00 2c 10 11 00 00 00   #..U.._.$.,.....
0050  f5 ff 9b 15 b4 ed 00 00 1a 02 07 02 09 b5         ..............

No.     Time           Source                Destination           Protocol Length Info
   1420 22.890436      1.13.1                host                  USB      94     URB_INTERRUPT in

Frame 1420: 94 bytes on wire (752 bits), 94 bytes captured (752 bits) on interface 0
USB URB
    [Source: 1.13.1]
    [Destination: host]
    URB id: 0xffff9544e4c31900
    URB type: URB_COMPLETE ('C')
    URB transfer type: URB_INTERRUPT (0x01)
    Endpoint: 0x81, Direction: IN
    Device: 13
    URB bus id: 1
    Device setup request: not relevant ('-')
    Data: present (0)
    URB sec: 1604310225
    URB usec: 719457
    URB status: Success (0)
    URB length [bytes]: 30
    Data length [bytes]: 30
    [Request in: 1419]
    [Time from request: 0.001962000 seconds]
    [bInterfaceClass: Unknown (0xffff)]
    Unused Setup Header
    Interval: 2
    Start frame: 0
    Copy of Transfer Flags: 0x00000204
    Number of ISO descriptors: 0
Leftover Capture Data: 23b50f58e8ba5cff3200391014000200f4ff69bc4c080000...

0000  00 19 c3 e4 44 95 ff ff 43 01 81 0d 01 00 2d 00   ....D...C.....-.
0010  d1 d4 9f 5f 00 00 00 00 61 fa 0a 00 00 00 00 00   ..._....a.......
0020  1e 00 00 00 1e 00 00 00 00 00 00 00 00 00 00 00   ................
0030  02 00 00 00 00 00 00 00 04 02 00 00 00 00 00 00   ................
0040  23 b5 0f 58 e8 ba 5c ff 32 00 39 10 14 00 02 00   #..X..\.2.9.....
0050  f4 ff 69 bc 4c 08 00 00 1a 02 07 02 09 b5         ..i.L.........

No.     Time           Source                Destination           Protocol Length Info
   1422 22.894588      1.13.1                host                  USB      94     URB_INTERRUPT in

Frame 1422: 94 bytes on wire (752 bits), 94 bytes captured (752 bits) on interface 0
USB URB
    [Source: 1.13.1]
    [Destination: host]
    URB id: 0xffff9544e4c31900
    URB type: URB_COMPLETE ('C')
    URB transfer type: URB_INTERRUPT (0x01)
    Endpoint: 0x81, Direction: IN
    Device: 13
    URB bus id: 1
    Device setup request: not relevant ('-')
    Data: present (0)
    URB sec: 1604310225
    URB usec: 723609
    URB status: Success (0)
    URB length [bytes]: 30
    Data length [bytes]: 30
    [Request in: 1421]
    [Time from request: 0.004132000 seconds]
    [bInterfaceClass: Unknown (0xffff)]
    Unused Setup Header
    Interval: 2
    Start frame: 0
    Copy of Transfer Flags: 0x00000204
    Number of ISO descriptors: 0
Leftover Capture Data: 23b50f5be8a558ff2900371015000100f5ff388837770000...

0000  00 19 c3 e4 44 95 ff ff 43 01 81 0d 01 00 2d 00   ....D...C.....-.
0010  d1 d4 9f 5f 00 00 00 00 99 0a 0b 00 00 00 00 00   ..._............
0020  1e 00 00 00 1e 00 00 00 00 00 00 00 00 00 00 00   ................
0030  02 00 00 00 00 00 00 00 04 02 00 00 00 00 00 00   ................
0040  23 b5 0f 5b e8 a5 58 ff 29 00 37 10 15 00 01 00   #..[..X.).7.....
0050  f5 ff 38 88 37 77 00 00 1a 02 07 02 09 b5         ..8.7w........

No.     Time           Source                Destination           Protocol Length Info
   1426 22.902465      1.13.1                host                  USB      94     URB_INTERRUPT in

Frame 1426: 94 bytes on wire (752 bits), 94 bytes captured (752 bits) on interface 0
USB URB
    [Source: 1.13.1]
    [Destination: host]
    URB id: 0xffff9544e4c31900
    URB type: URB_COMPLETE ('C')
    URB transfer type: URB_INTERRUPT (0x01)
    Endpoint: 0x81, Direction: IN
    Device: 13
    URB bus id: 1
    Device setup request: not relevant ('-')
    Data: present (0)
    URB sec: 1604310225
    URB usec: 731486
    URB status: Success (0)
    URB length [bytes]: 30
    Data length [bytes]: 30
    [Request in: 1423]
    [Time from request: 0.007851000 seconds]
    [bInterfaceClass: Unknown (0xffff)]
    Unused Setup Header
    Interval: 2
    Start frame: 0
    Copy of Transfer Flags: 0x00000204
    Number of ISO descriptors: 0
Leftover Capture Data: 23b5015b58c978a4058cf7b55c0c010200000a85afdf5ee3...

0000  00 19 c3 e4 44 95 ff ff 43 01 81 0d 01 00 2d 00   ....D...C.....-.
0010  d1 d4 9f 5f 00 00 00 00 5e 29 0b 00 00 00 00 00   ..._....^)......
0020  1e 00 00 00 1e 00 00 00 00 00 00 00 00 00 00 00   ................
0030  02 00 00 00 00 00 00 00 04 02 00 00 00 00 00 00   ................
0040  23 b5 01 5b 58 c9 78 a4 05 8c f7 b5 5c 0c 01 02   #..[X.x.....\...
0050  00 00 0a 85 af df 5e e3 b1 85 7c 00 00 f0         ......^...|...

No.     Time           Source                Destination           Protocol Length Info
   1428 22.904615      1.13.1                host                  USB      94     URB_INTERRUPT in

Frame 1428: 94 bytes on wire (752 bits), 94 bytes captured (752 bits) on interface 0
USB URB
    [Source: 1.13.1]
    [Destination: host]
    URB id: 0xffff9544e4c31900
    URB type: URB_COMPLETE ('C')
    URB transfer type: URB_INTERRUPT (0x01)
    Endpoint: 0x81, Direction: IN
    Device: 13
    URB bus id: 1
    Device setup request: not relevant ('-')
    Data: present (0)
    URB sec: 1604310225
    URB usec: 733636
    URB status: Success (0)
    URB length [bytes]: 30
    Data length [bytes]: 30
    [Request in: 1427]
    [Time from request: 0.002125000 seconds]
    [bInterfaceClass: Unknown (0xffff)]
    Unused Setup Header
    Interval: 2
    Start frame: 0
    Copy of Transfer Flags: 0x00000204
    Number of ISO descriptors: 0
Leftover Capture Data: 23b50f61e87b5fff2500311018000100f5ff71748e6f5ee3...

0000  00 19 c3 e4 44 95 ff ff 43 01 81 0d 01 00 2d 00   ....D...C.....-.
0010  d1 d4 9f 5f 00 00 00 00 c4 31 0b 00 00 00 00 00   ..._.....1......
0020  1e 00 00 00 1e 00 00 00 00 00 00 00 00 00 00 00   ................
0030  02 00 00 00 00 00 00 00 04 02 00 00 00 00 00 00   ................
0040  23 b5 0f 61 e8 7b 5f ff 25 00 31 10 18 00 01 00   #..a.{_.%.1.....
0050  f5 ff 71 74 8e 6f 5e e3 b1 85 7c 00 00 f0         ..qt.o^...|...

No.     Time           Source                Destination           Protocol Length Info
   1430 22.906678      1.13.1                host                  USB      94     URB_INTERRUPT in

Frame 1430: 94 bytes on wire (752 bits), 94 bytes captured (752 bits) on interface 0
USB URB
    [Source: 1.13.1]
    [Destination: host]
    URB id: 0xffff9544e4c31900
    URB type: URB_COMPLETE ('C')
    URB transfer type: URB_INTERRUPT (0x01)
    Endpoint: 0x81, Direction: IN
    Device: 13
    URB bus id: 1
    Device setup request: not relevant ('-')
    Data: present (0)
    URB sec: 1604310225
    URB usec: 735699
    URB status: Success (0)
    URB length [bytes]: 30
    Data length [bytes]: 30
    [Request in: 1429]
    [Time from request: 0.002035000 seconds]
    [bInterfaceClass: Unknown (0xffff)]
    Unused Setup Header
    Interval: 2
    Start frame: 0
    Copy of Transfer Flags: 0x00000204
    Number of ISO descriptors: 0
Leftover Capture Data: 23b50f64e86657ff24002d1019000000f6ffed6a2b045ee3...

0000  00 19 c3 e4 44 95 ff ff 43 01 81 0d 01 00 2d 00   ....D...C.....-.
0010  d1 d4 9f 5f 00 00 00 00 d3 39 0b 00 00 00 00 00   ..._.....9......
0020  1e 00 00 00 1e 00 00 00 00 00 00 00 00 00 00 00   ................
0030  02 00 00 00 00 00 00 00 04 02 00 00 00 00 00 00   ................
0040  23 b5 0f 64 e8 66 57 ff 24 00 2d 10 19 00 00 00   #..d.fW.$.-.....
0050  f6 ff ed 6a 2b 04 5e e3 b1 85 7c 00 00 f0         ...j+.^...|...

No.     Time           Source                Destination           Protocol Length Info
   1432 22.908394      1.13.1                host                  USB      94     URB_INTERRUPT in

Frame 1432: 94 bytes on wire (752 bits), 94 bytes captured (752 bits) on interface 0
USB URB
    [Source: 1.13.1]
    [Destination: host]
    URB id: 0xffff9544e4c31900
    URB type: URB_COMPLETE ('C')
    URB transfer type: URB_INTERRUPT (0x01)
    Endpoint: 0x81, Direction: IN
    Device: 13
    URB bus id: 1
    Device setup request: not relevant ('-')
    Data: present (0)
    URB sec: 1604310225
    URB usec: 737415
    URB status: Success (0)
    URB length [bytes]: 30
    Data length [bytes]: 30
    [Request in: 1431]
    [Time from request: 0.001684000 seconds]
    [bInterfaceClass: Unknown (0xffff)]
    Unused Setup Header
    Interval: 2
    Start frame: 0
    Copy of Transfer Flags: 0x00000204
    Number of ISO descriptors: 0
Leftover Capture Data: 23b50164306cbbec24002d1019000000f6ffed6a2b045ee3...

0000  00 19 c3 e4 44 95 ff ff 43 01 81 0d 01 00 2d 00   ....D...C.....-.
0010  d1 d4 9f 5f 00 00 00 00 87 40 0b 00 00 00 00 00   ..._.....@......
0020  1e 00 00 00 1e 00 00 00 00 00 00 00 00 00 00 00   ................
0030  02 00 00 00 00 00 00 00 04 02 00 00 00 00 00 00   ................
0040  23 b5 01 64 30 6c bb ec 24 00 2d 10 19 00 00 00   #..d0l..$.-.....
0050  f6 ff ed 6a 2b 04 5e e3 b1 85 7c 00 00 f0         ...j+.^...|...

No.     Time           Source                Destination           Protocol Length Info
   1437 22.910426      1.13.1                host                  USB      94     URB_INTERRUPT in

Frame 1437: 94 bytes on wire (752 bits), 94 bytes captured (752 bits) on interface 0
USB URB
    [Source: 1.13.1]
    [Destination: host]
    URB id: 0xffff9544e4c31900
    URB type: URB_COMPLETE ('C')
    URB transfer type: URB_INTERRUPT (0x01)
    Endpoint: 0x81, Direction: IN
    Device: 13
    URB bus id: 1
    Device setup request: not relevant ('-')
    Data: present (0)
    URB sec: 1604310225
    URB usec: 739447
    URB status: Success (0)
    URB length [bytes]: 30
    Data length [bytes]: 30
    [Request in: 1433]
    [Time from request: 0.002005000 seconds]
    [bInterfaceClass: Unknown (0xffff)]
    Unused Setup Header
    Interval: 2
    Start frame: 0
    Copy of Transfer Flags: 0x00000204
    Number of ISO descriptors: 0
Leftover Capture Data: 23b50164940ecc5024002d1019000000f6ffed6a2b045ee3...

0000  00 19 c3 e4 44 95 ff ff 43 01 81 0d 01 00 2d 00   ....D...C.....-.
0010  d1 d4 9f 5f 00 00 00 00 77 48 0b 00 00 00 00 00   ..._....wH......
0020  1e 00 00 00 1e 00 00 00 00 00 00 00 00 00 00 00   ................
0030  02 00 00 00 00 00 00 00 04 02 00 00 00 00 00 00   ................
0040  23 b5 01 64 94 0e cc 50 24 00 2d 10 19 00 00 00   #..d...P$.-.....
0050  f6 ff ed 6a 2b 04 5e e3 b1 85 7c 00 00 f0         ...j+.^...|...

No.     Time           Source                Destination           Protocol Length Info
   1442 22.912416      1.13.1                host                  USB      94     URB_INTERRUPT in

Frame 1442: 94 bytes on wire (752 bits), 94 bytes captured (752 bits) on interface 0
USB URB
    [Source: 1.13.1]
    [Destination: host]
    URB id: 0xffff9544e4c31900
    URB type: URB_COMPLETE ('C')
    URB transfer type: URB_INTERRUPT (0x01)
    Endpoint: 0x81, Direction: IN
    Device: 13
    URB bus id: 1
    Device setup request: not relevant ('-')
    Data: present (0)
    URB sec: 1604310225
    URB usec: 741437
    URB status: Success (0)
    URB length [bytes]: 30
    Data length [bytes]: 30
    [Request in: 1438]
    [Time from request: 0.001970000 seconds]
    [bInterfaceClass: Unknown (0xffff)]
    Unused Setup Header
    Interval: 2
    Start frame: 0
    Copy of Transfer Flags: 0x00000204
    Number of ISO descriptors: 0
Leftover Capture Data: 23b50f67e85152ff1c0030101b000200f7ffbef903d75ee3...

0000  00 19 c3 e4 44 95 ff ff 43 01 81 0d 01 00 2d 00   ....D...C.....-.
0010  d1 d4 9f 5f 00 00 00 00 3d 50 0b 00 00 00 00 00   ..._....=P......
0020  1e 00 00 00 1e 00 00 00 00 00 00 00 00 00 00 00   ................
0030  02 00 00 00 00 00 00 00 04 02 00 00 00 00 00 00   ................
0040  23 b5 0f 67 e8 51 52 ff 1c 00 30 10 1b 00 02 00   #..g.QR...0.....
0050  f7 ff be f9 03 d7 5e e3 b1 85 7c 00 00 f0         ......^...|...

No.     Time           Source                Destination           Protocol Length Info
   1444 22.914440      1.13.1                host                  USB      123    URB_INTERRUPT in

Frame 1444: 123 bytes on wire (984 bits), 123 bytes captured (984 bits) on interface 0
USB URB
    [Source: 1.13.1]
    [Destination: host]
    URB id: 0xffff9544e4c31900
    URB type: URB_COMPLETE ('C')
    URB transfer type: URB_INTERRUPT (0x01)
    Endpoint: 0x81, Direction: IN
    Device: 13
    URB bus id: 1
    Device setup request: not relevant ('-')
    Data: present (0)
    URB sec: 1604310225
    URB usec: 743461
    URB status: Success (0)
    URB length [bytes]: 59
    Data length [bytes]: 59
    [Request in: 1443]
    [Time from request: 0.002001000 seconds]
    [bInterfaceClass: Unknown (0xffff)]
    Unused Setup Header
    Interval: 2
    Start frame: 0
    Copy of Transfer Flags: 0x00000204
    Number of ISO descriptors: 0
Leftover Capture Data: 24b501671c0a455a1c0030101b000200f7ffbef903d75ee3...

0000  00 19 c3 e4 44 95 ff ff 43 01 81 0d 01 00 2d 00   ....D...C.....-.
0010  d1 d4 9f 5f 00 00 00 00 25 58 0b 00 00 00 00 00   ..._....%X......
0020  3b 00 00 00 3b 00 00 00 00 00 00 00 00 00 00 00   ;...;...........
0030  02 00 00 00 00 00 00 00 04 02 00 00 00 00 00 00   ................
0040  24 b5 01 67 1c 0a 45 5a 1c 00 30 10 1b 00 02 00   $..g..EZ..0.....
0050  f7 ff be f9 03 d7 5e e3 b1 85 7c 00 00 f0 b5 01   ......^...|.....
0060  67 67 e8 78 06 1c 00 30 10 1b 00 02 00 f7 ff be   gg.x...0........
0070  f9 03 d7 5e e3 b1 85 7c 00 00 f0                  ...^...|...

No.     Time           Source                Destination           Protocol Length Info
   1454 22.924432      1.13.1                host                  USB      94     URB_INTERRUPT in

Frame 1454: 94 bytes on wire (752 bits), 94 bytes captured (752 bits) on interface 0
USB URB
    [Source: 1.13.1]
    [Destination: host]
    URB id: 0xffff9544e4c31900
    URB type: URB_COMPLETE ('C')
    URB transfer type: URB_INTERRUPT (0x01)
    Endpoint: 0x81, Direction: IN
    Device: 13
    URB bus id: 1
    Device setup request: not relevant ('-')
    Data: present (0)
    URB sec: 1604310225
    URB usec: 753453
    URB status: Success (0)
    URB length [bytes]: 30
    Data length [bytes]: 30
    [Request in: 1445]
    [Time from request: 0.009952000 seconds]
    [bInterfaceClass: Unknown (0xffff)]
    Unused Setup Header
    Interval: 2
    Start frame: 0
    Copy of Transfer Flags: 0x00000204
    Number of ISO descriptors: 0
Leftover Capture Data: 23b5016a003c35866162732d6c617074090000f000000000...

0000  00 19 c3 e4 44 95 ff ff 43 01 81 0d 01 00 2d 00   ....D...C.....-.
0010  d1 d4 9f 5f 00 00 00 00 2d 7f 0b 00 00 00 00 00   ..._....-.......
0020  1e 00 00 00 1e 00 00 00 00 00 00 00 00 00 00 00   ................
0030  02 00 00 00 00 00 00 00 04 02 00 00 00 00 00 00   ................
0040  23 b5 01 6a 00 3c 35 86 61 62 73 2d 6c 61 70 74   #..j.<5.abs-lapt
0050  09 00 00 f0 00 00 00 00 1a 02 07 02 64 82         ............d.

No.     Time           Source                Destination           Protocol Length Info
   1456 22.926436      1.13.1                host                  USB      94     URB_INTERRUPT in

Frame 1456: 94 bytes on wire (752 bits), 94 bytes captured (752 bits) on interface 0
USB URB
    [Source: 1.13.1]
    [Destination: host]
    URB id: 0xffff9544e4c31900
    URB type: URB_COMPLETE ('C')
    URB transfer type: URB_INTERRUPT (0x01)
    Endpoint: 0x81, Direction: IN
    Device: 13
    URB bus id: 1
    Device setup request: not relevant ('-')
    Data: present (0)
    URB sec: 1604310225
    URB usec: 755457
    URB status: Success (0)
    URB length [bytes]: 30
    Data length [bytes]: 30
    [Request in: 1455]
    [Time from request: 0.001979000 seconds]
    [bInterfaceClass: Unknown (0xffff)]
    Unused Setup Header
    Interval: 2
    Start frame: 0
    Copy of Transfer Flags: 0x00000204
    Number of ISO descriptors: 0
Leftover Capture Data: 23b50370e201456c4abd732d6c617074090000f000000000...

0000  00 19 c3 e4 44 95 ff ff 43 01 81 0d 01 00 2d 00   ....D...C.....-.
0010  d1 d4 9f 5f 00 00 00 00 01 87 0b 00 00 00 00 00   ..._............
0020  1e 00 00 00 1e 00 00 00 00 00 00 00 00 00 00 00   ................
0030  02 00 00 00 00 00 00 00 04 02 00 00 00 00 00 00   ................
0040  23 b5 03 70 e2 01 45 6c 4a bd 73 2d 6c 61 70 74   #..p..ElJ.s-lapt
0050  09 00 00 f0 00 00 00 00 1a 02 07 02 64 82         ............d.

No.     Time           Source                Destination           Protocol Length Info
   1458 22.928438      1.13.1                host                  USB      94     URB_INTERRUPT in

Frame 1458: 94 bytes on wire (752 bits), 94 bytes captured (752 bits) on interface 0
USB URB
    [Source: 1.13.1]
    [Destination: host]
    URB id: 0xffff9544e4c31900
    URB type: URB_COMPLETE ('C')
    URB transfer type: URB_INTERRUPT (0x01)
    Endpoint: 0x81, Direction: IN
    Device: 13
    URB bus id: 1
    Device setup request: not relevant ('-')
    Data: present (0)
    URB sec: 1604310225
    URB usec: 757459
    URB status: Success (0)
    URB length [bytes]: 30
    Data length [bytes]: 30
    [Request in: 1457]
    [Time from request: 0.001981000 seconds]
    [bInterfaceClass: Unknown (0xffff)]
    Unused Setup Header
    Interval: 2
    Start frame: 0
    Copy of Transfer Flags: 0x00000204
    Number of ISO descriptors: 0
Leftover Capture Data: 23b50372e2015425324b732d6c617074090000f000000000...

0000  00 19 c3 e4 44 95 ff ff 43 01 81 0d 01 00 2d 00   ....D...C.....-.
0010  d1 d4 9f 5f 00 00 00 00 d3 8e 0b 00 00 00 00 00   ..._............
0020  1e 00 00 00 1e 00 00 00 00 00 00 00 00 00 00 00   ................
0030  02 00 00 00 00 00 00 00 04 02 00 00 00 00 00 00   ................
0040  23 b5 03 72 e2 01 54 25 32 4b 73 2d 6c 61 70 74   #..r..T%2Ks-lapt
0050  09 00 00 f0 00 00 00 00 1a 02 07 02 64 82         ............d.

No.     Time           Source                Destination           Protocol Length Info
   1460 22.930432      1.13.1                host                  USB      94     URB_INTERRUPT in

Frame 1460: 94 bytes on wire (752 bits), 94 bytes captured (752 bits) on interface 0
USB URB
    [Source: 1.13.1]
    [Destination: host]
    URB id: 0xffff9544e4c31900
    URB type: URB_COMPLETE ('C')
    URB transfer type: URB_INTERRUPT (0x01)
    Endpoint: 0x81, Direction: IN
    Device: 13
    URB bus id: 1
    Device setup request: not relevant ('-')
    Data: present (0)
    URB sec: 1604310225
    URB usec: 759453
    URB status: Success (0)
    URB length [bytes]: 30
    Data length [bytes]: 30
    [Request in: 1459]
    [Time from request: 0.001973000 seconds]
    [bInterfaceClass: Unknown (0xffff)]
    Unused Setup Header
    Interval: 2
    Start frame: 0
    Copy of Transfer Flags: 0x00000204
    Number of ISO descriptors: 0
Leftover Capture Data: 23b50372e201d78f0dd3732d6c617074090000f000000000...

0000  00 19 c3 e4 44 95 ff ff 43 01 81 0d 01 00 2d 00   ....D...C.....-.
0010  d1 d4 9f 5f 00 00 00 00 9d 96 0b 00 00 00 00 00   ..._............
0020  1e 00 00 00 1e 00 00 00 00 00 00 00 00 00 00 00   ................
0030  02 00 00 00 00 00 00 00 04 02 00 00 00 00 00 00   ................
0040  23 b5 03 72 e2 01 d7 8f 0d d3 73 2d 6c 61 70 74   #..r......s-lapt
0050  09 00 00 f0 00 00 00 00 1a 02 07 02 64 82         ............d.

No.     Time           Source                Destination           Protocol Length Info
   1462 22.932463      1.13.1                host                  USB      123    URB_INTERRUPT in

Frame 1462: 123 bytes on wire (984 bits), 123 bytes captured (984 bits) on interface 0
USB URB
    [Source: 1.13.1]
    [Destination: host]
    URB id: 0xffff9544e4c31900
    URB type: URB_COMPLETE ('C')
    URB transfer type: URB_INTERRUPT (0x01)
    Endpoint: 0x81, Direction: IN
    Device: 13
    URB bus id: 1
    Device setup request: not relevant ('-')
    Data: present (0)
    URB sec: 1604310225
    URB usec: 761484
    URB status: Success (0)
    URB length [bytes]: 59
    Data length [bytes]: 59
    [Request in: 1461]
    [Time from request: 0.002009000 seconds]
    [bInterfaceClass: Unknown (0xffff)]
    Unused Setup Header
    Interval: 2
    Start frame: 0
    Copy of Transfer Flags: 0x00000204
    Number of ISO descriptors: 0
Leftover Capture Data: 24b50375e20142dffd3d732d6c617074090000f000000000...

0000  00 19 c3 e4 44 95 ff ff 43 01 81 0d 01 00 2d 00   ....D...C.....-.
0010  d1 d4 9f 5f 00 00 00 00 8c 9e 0b 00 00 00 00 00   ..._............
0020  3b 00 00 00 3b 00 00 00 00 00 00 00 00 00 00 00   ;...;...........
0030  02 00 00 00 00 00 00 00 04 02 00 00 00 00 00 00   ................
0040  24 b5 03 75 e2 01 42 df fd 3d 73 2d 6c 61 70 74   $..u..B..=s-lapt
0050  09 00 00 f0 00 00 00 00 1a 02 07 02 64 82 b5 03   ............d...
0060  75 e2 01 53 35 67 73 73 2d 6c 61 70 74 09 00 00   u..S5gss-lapt...
0070  f0 00 00 00 00 1a 02 07 02 64 82                  .........d.

No.     Time           Source                Destination           Protocol Length Info
   1464 22.934459      1.13.1                host                  USB      94     URB_INTERRUPT in

Frame 1464: 94 bytes on wire (752 bits), 94 bytes captured (752 bits) on interface 0
USB URB
    [Source: 1.13.1]
    [Destination: host]
    URB id: 0xffff9544e4c31900
    URB type: URB_COMPLETE ('C')
    URB transfer type: URB_INTERRUPT (0x01)
    Endpoint: 0x81, Direction: IN
    Device: 13
    URB bus id: 1
    Device setup request: not relevant ('-')
    Data: present (0)
    URB sec: 1604310225
    URB usec: 763480
    URB status: Success (0)
    URB length [bytes]: 30
    Data length [bytes]: 30
    [Request in: 1463]
    [Time from request: 0.001967000 seconds]
    [bInterfaceClass: Unknown (0xffff)]
    Unused Setup Header
    Interval: 2
    Start frame: 0
    Copy of Transfer Flags: 0x00000204
    Number of ISO descriptors: 0
Leftover Capture Data: 23b50375e2014cd085d7732d6c617074090000f000000000...

0000  00 19 c3 e4 44 95 ff ff 43 01 81 0d 01 00 2d 00   ....D...C.....-.
0010  d1 d4 9f 5f 00 00 00 00 58 a6 0b 00 00 00 00 00   ..._....X.......
0020  1e 00 00 00 1e 00 00 00 00 00 00 00 00 00 00 00   ................
0030  02 00 00 00 00 00 00 00 04 02 00 00 00 00 00 00   ................
0040  23 b5 03 75 e2 01 4c d0 85 d7 73 2d 6c 61 70 74   #..u..L...s-lapt
0050  09 00 00 f0 00 00 00 00 1a 02 07 02 64 82         ............d.

No.     Time           Source                Destination           Protocol Length Info
   1466 22.936466      1.13.1                host                  USB      94     URB_INTERRUPT in

Frame 1466: 94 bytes on wire (752 bits), 94 bytes captured (752 bits) on interface 0
USB URB
    [Source: 1.13.1]
    [Destination: host]
    URB id: 0xffff9544e4c31900
    URB type: URB_COMPLETE ('C')
    URB transfer type: URB_INTERRUPT (0x01)
    Endpoint: 0x81, Direction: IN
    Device: 13
    URB bus id: 1
    Device setup request: not relevant ('-')
    Data: present (0)
    URB sec: 1604310225
    URB usec: 765487
    URB status: Success (0)
    URB length [bytes]: 30
    Data length [bytes]: 30
    [Request in: 1465]
    [Time from request: 0.001986000 seconds]
    [bInterfaceClass: Unknown (0xffff)]
    Unused Setup Header
    Interval: 2
    Start frame: 0
    Copy of Transfer Flags: 0x00000204
    Number of ISO descriptors: 0
Leftover Capture Data: 23b50378e2015788e450732d6c617074090000f000000000...

0000  00 19 c3 e4 44 95 ff ff 43 01 81 0d 01 00 2d 00   ....D...C.....-.
0010  d1 d4 9f 5f 00 00 00 00 2f ae 0b 00 00 00 00 00   ..._..../.......
0020  1e 00 00 00 1e 00 00 00 00 00 00 00 00 00 00 00   ................
0030  02 00 00 00 00 00 00 00 04 02 00 00 00 00 00 00   ................
0040  23 b5 03 78 e2 01 57 88 e4 50 73 2d 6c 61 70 74   #..x..W..Ps-lapt
0050  09 00 00 f0 00 00 00 00 1a 02 07 02 64 82         ............d.

No.     Time           Source                Destination           Protocol Length Info
   1468 22.938481      1.13.1                host                  USB      123    URB_INTERRUPT in

Frame 1468: 123 bytes on wire (984 bits), 123 bytes captured (984 bits) on interface 0
USB URB
    [Source: 1.13.1]
    [Destination: host]
    URB id: 0xffff9544e4c31900
    URB type: URB_COMPLETE ('C')
    URB transfer type: URB_INTERRUPT (0x01)
    Endpoint: 0x81, Direction: IN
    Device: 13
    URB bus id: 1
    Device setup request: not relevant ('-')
    Data: present (0)
    URB sec: 1604310225
    URB usec: 767502
    URB status: Success (0)
    URB length [bytes]: 59
    Data length [bytes]: 59
    [Request in: 1467]
    [Time from request: 0.001996000 seconds]
    [bInterfaceClass: Unknown (0xffff)]
    Unused Setup Header
    Interval: 2
    Start frame: 0
    Copy of Transfer Flags: 0x00000204
    Number of ISO descriptors: 0
Leftover Capture Data: 24b50378e201c2ba340c732d6c617074090000f000000000...

0000  00 19 c3 e4 44 95 ff ff 43 01 81 0d 01 00 2d 00   ....D...C.....-.
0010  d1 d4 9f 5f 00 00 00 00 0e b6 0b 00 00 00 00 00   ..._............
0020  3b 00 00 00 3b 00 00 00 00 00 00 00 00 00 00 00   ;...;...........
0030  02 00 00 00 00 00 00 00 04 02 00 00 00 00 00 00   ................
0040  24 b5 03 78 e2 01 c2 ba 34 0c 73 2d 6c 61 70 74   $..x....4.s-lapt
0050  09 00 00 f0 00 00 00 00 1a 02 07 02 64 82 b5 13   ............d...
0060  78 c0 d3 4f ff 26 00 3c 10 13 00 01 00 f6 ff 70   x..O.&.<.......p
0070  02 00 00 2c 50 43 a4 07 02 64 82                  ...,PC...d.

No.     Time           Source                Destination           Protocol Length Info
   1470 22.940399      1.13.1                host                  USB      94     URB_INTERRUPT in

Frame 1470: 94 bytes on wire (752 bits), 94 bytes captured (752 bits) on interface 0
USB URB
    [Source: 1.13.1]
    [Destination: host]
    URB id: 0xffff9544e4c31900
    URB type: URB_COMPLETE ('C')
    URB transfer type: URB_INTERRUPT (0x01)
    Endpoint: 0x81, Direction: IN
    Device: 13
    URB bus id: 1
    Device setup request: not relevant ('-')
    Data: present (0)
    URB sec: 1604310225
    URB usec: 769420
    URB status: Success (0)
    URB length [bytes]: 30
    Data length [bytes]: 30
    [Request in: 1469]
    [Time from request: 0.001891000 seconds]
    [bInterfaceClass: Unknown (0xffff)]
    Unused Setup Header
    Interval: 2
    Start frame: 0
    Copy of Transfer Flags: 0x00000204
    Number of ISO descriptors: 0
Leftover Capture Data: 23b5127bc0be59ff2b002a1012000000f5ff300000d2f972...

0000  00 19 c3 e4 44 95 ff ff 43 01 81 0d 01 00 2d 00   ....D...C.....-.
0010  d1 d4 9f 5f 00 00 00 00 8c bd 0b 00 00 00 00 00   ..._............
0020  1e 00 00 00 1e 00 00 00 00 00 00 00 00 00 00 00   ................
0030  02 00 00 00 00 00 00 00 04 02 00 00 00 00 00 00   ................
0040  23 b5 12 7b c0 be 59 ff 2b 00 2a 10 12 00 00 00   #..{..Y.+.*.....
0050  f5 ff 30 00 00 d2 f9 72 4f a4 07 02 64 82         ..0....rO...d.

No.     Time           Source                Destination           Protocol Length Info
   1472 22.942452      1.13.1                host                  USB      94     URB_INTERRUPT in

Frame 1472: 94 bytes on wire (752 bits), 94 bytes captured (752 bits) on interface 0
USB URB
    [Source: 1.13.1]
    [Destination: host]
    URB id: 0xffff9544e4c31900
    URB type: URB_COMPLETE ('C')
    URB transfer type: URB_INTERRUPT (0x01)
    Endpoint: 0x81, Direction: IN
    Device: 13
    URB bus id: 1
    Device setup request: not relevant ('-')
    Data: present (0)
    URB sec: 1604310225
    URB usec: 771473
    URB status: Success (0)
    URB length [bytes]: 30
    Data length [bytes]: 30
    [Request in: 1471]
    [Time from request: 0.002029000 seconds]
    [bInterfaceClass: Unknown (0xffff)]
    Unused Setup Header
    Interval: 2
    Start frame: 0
    Copy of Transfer Flags: 0x00000204
    Number of ISO descriptors: 0
Leftover Capture Data: 23b5057b403000004720164812000000f5ff300000d2f972...

0000  00 19 c3 e4 44 95 ff ff 43 01 81 0d 01 00 2d 00   ....D...C.....-.
0010  d1 d4 9f 5f 00 00 00 00 91 c5 0b 00 00 00 00 00   ..._............
0020  1e 00 00 00 1e 00 00 00 00 00 00 00 00 00 00 00   ................
0030  02 00 00 00 00 00 00 00 04 02 00 00 00 00 00 00   ................
0040  23 b5 05 7b 40 30 00 00 47 20 16 48 12 00 00 00   #..{@0..G .H....
0050  f5 ff 30 00 00 d2 f9 72 4f a4 07 02 64 82         ..0....rO...d.

No.     Time           Source                Destination           Protocol Length Info
   1474 22.944463      1.13.1                host                  USB      123    URB_INTERRUPT in

Frame 1474: 123 bytes on wire (984 bits), 123 bytes captured (984 bits) on interface 0
USB URB
    [Source: 1.13.1]
    [Destination: host]
    URB id: 0xffff9544e4c31900
    URB type: URB_COMPLETE ('C')
    URB transfer type: URB_INTERRUPT (0x01)
    Endpoint: 0x81, Direction: IN
    Device: 13
    URB bus id: 1
    Device setup request: not relevant ('-')
    Data: present (0)
    URB sec: 1604310225
    URB usec: 773484
    URB status: Success (0)
    URB length [bytes]: 59
    Data length [bytes]: 59
    [Request in: 1473]
    [Time from request: 0.001992000 seconds]
    [bInterfaceClass: Unknown (0xffff)]
    Unused Setup Header
    Interval: 2
    Start frame: 0
    Copy of Transfer Flags: 0x00000204
    Number of ISO descriptors: 0
Leftover Capture Data: 24b5127ec0a956ff2100391014000100f3ff3000004743ce...

0000  00 19 c3 e4 44 95 ff ff 43 01 81 0d 01 00 2d 00   ....D...C.....-.
0010  d1 d4 9f 5f 00 00 00 00 6c cd 0b 00 00 00 00 00   ..._....l.......
0020  3b 00 00 00 3b 00 00 00 00 00 00 00 00 00 00 00   ;...;...........
0030  02 00 00 00 00 00 00 00 04 02 00 00 00 00 00 00   ................
0040  24 b5 12 7e c0 a9 56 ff 21 00 39 10 14 00 01 00   $..~..V.!.9.....
0050  f3 ff 30 00 00 47 43 ce 06 a4 07 02 64 82 b5 05   ..0..GC.....d...
0060  7e 40 30 00 00 48 56 44 82 14 00 01 00 f3 ff 30   ~@0..HVD.......0
0070  00 00 47 43 ce 06 a4 07 02 64 82                  ..GC.....d.

No.     Time           Source                Destination           Protocol Length Info
   1476 22.946452      1.13.1                host                  USB      94     URB_INTERRUPT in

Frame 1476: 94 bytes on wire (752 bits), 94 bytes captured (752 bits) on interface 0
USB URB
    [Source: 1.13.1]
    [Destination: host]
    URB id: 0xffff9544e4c31900
    URB type: URB_COMPLETE ('C')
    URB transfer type: URB_INTERRUPT (0x01)
    Endpoint: 0x81, Direction: IN
    Device: 13
    URB bus id: 1
    Device setup request: not relevant ('-')
    Data: present (0)
    URB sec: 1604310225
    URB usec: 775473
    URB status: Success (0)
    URB length [bytes]: 30
    Data length [bytes]: 30
    [Request in: 1475]
    [Time from request: 0.001955000 seconds]
    [bInterfaceClass: Unknown (0xffff)]
    Unused Setup Header
    Interval: 2
    Start frame: 0
    Copy of Transfer Flags: 0x00000204
    Number of ISO descriptors: 0
Leftover Capture Data: 23b5057e403000006b13125114000100f3ff3000004743ce...

0000  00 19 c3 e4 44 95 ff ff 43 01 81 0d 01 00 2d 00   ....D...C.....-.
0010  d1 d4 9f 5f 00 00 00 00 31 d5 0b 00 00 00 00 00   ..._....1.......
0020  1e 00 00 00 1e 00 00 00 00 00 00 00 00 00 00 00   ................
0030  02 00 00 00 00 00 00 00 04 02 00 00 00 00 00 00   ................
0040  23 b5 05 7e 40 30 00 00 6b 13 12 51 14 00 01 00   #..~@0..k..Q....
0050  f3 ff 30 00 00 47 43 ce 06 a4 07 02 64 82         ..0..GC.....d.

No.     Time           Source                Destination           Protocol Length Info
   1478 22.948440      1.13.1                host                  USB      94     URB_INTERRUPT in

Frame 1478: 94 bytes on wire (752 bits), 94 bytes captured (752 bits) on interface 0
USB URB
    [Source: 1.13.1]
    [Destination: host]
    URB id: 0xffff9544e4c31900
    URB type: URB_COMPLETE ('C')
    URB transfer type: URB_INTERRUPT (0x01)
    Endpoint: 0x81, Direction: IN
    Device: 13
    URB bus id: 1
    Device setup request: not relevant ('-')
    Data: present (0)
    URB sec: 1604310225
    URB usec: 777461
    URB status: Success (0)
    URB length [bytes]: 30
    Data length [bytes]: 30
    [Request in: 1477]
    [Time from request: 0.001968000 seconds]
    [bInterfaceClass: Unknown (0xffff)]
    Unused Setup Header
    Interval: 2
    Start frame: 0
    Copy of Transfer Flags: 0x00000204
    Number of ISO descriptors: 0
Leftover Capture Data: 23b51281c09463ff2d00331015000100f6ff30000002f81a...

0000  00 19 c3 e4 44 95 ff ff 43 01 81 0d 01 00 2d 00   ....D...C.....-.
0010  d1 d4 9f 5f 00 00 00 00 f5 dc 0b 00 00 00 00 00   ..._............
0020  1e 00 00 00 1e 00 00 00 00 00 00 00 00 00 00 00   ................
0030  02 00 00 00 00 00 00 00 04 02 00 00 00 00 00 00   ................
0040  23 b5 12 81 c0 94 63 ff 2d 00 33 10 15 00 01 00   #.....c.-.3.....
0050  f6 ff 30 00 00 02 f8 1a 4d a4 07 02 64 82         ..0.....M...d.

No.     Time           Source                Destination           Protocol Length Info
   1480 22.950461      1.13.1                host                  USB      123    URB_INTERRUPT in

Frame 1480: 123 bytes on wire (984 bits), 123 bytes captured (984 bits) on interface 0
USB URB
    [Source: 1.13.1]
    [Destination: host]
    URB id: 0xffff9544e4c31900
    URB type: URB_COMPLETE ('C')
    URB transfer type: URB_INTERRUPT (0x01)
    Endpoint: 0x81, Direction: IN
    Device: 13
    URB bus id: 1
    Device setup request: not relevant ('-')
    Data: present (0)
    URB sec: 1604310225
    URB usec: 779482
    URB status: Success (0)
    URB length [bytes]: 59
    Data length [bytes]: 59
    [Request in: 1479]
    [Time from request: 0.001997000 seconds]
    [bInterfaceClass: Unknown (0xffff)]
    Unused Setup Header
    Interval: 2
    Start frame: 0
    Copy of Transfer Flags: 0x00000204
    Number of ISO descriptors: 0
Leftover Capture Data: 24b50581403000001fa7aad315000100f6ff30000002f81a...

0000  00 19 c3 e4 44 95 ff ff 43 01 81 0d 01 00 2d 00   ....D...C.....-.
0010  d1 d4 9f 5f 00 00 00 00 da e4 0b 00 00 00 00 00   ..._............
0020  3b 00 00 00 3b 00 00 00 00 00 00 00 00 00 00 00   ;...;...........
0030  02 00 00 00 00 00 00 00 04 02 00 00 00 00 00 00   ................
0040  24 b5 05 81 40 30 00 00 1f a7 aa d3 15 00 01 00   $...@0..........
0050  f6 ff 30 00 00 02 f8 1a 4d a4 07 02 64 82 b5 0f   ..0.....M...d...
0060  84 80 7f 5e ff 2e 00 33 10 17 00 02 00 f5 ff 02   ...^...3........
0070  4b a5 bd f8 1a 4d a4 07 02 64 82                  K....M...d.

No.     Time           Source                Destination           Protocol Length Info
   1482 22.954464      1.13.1                host                  USB      94     URB_INTERRUPT in

Frame 1482: 94 bytes on wire (752 bits), 94 bytes captured (752 bits) on interface 0
USB URB
    [Source: 1.13.1]
    [Destination: host]
    URB id: 0xffff9544e4c31900
    URB type: URB_COMPLETE ('C')
    URB transfer type: URB_INTERRUPT (0x01)
    Endpoint: 0x81, Direction: IN
    Device: 13
    URB bus id: 1
    Device setup request: not relevant ('-')
    Data: present (0)
    URB sec: 1604310225
    URB usec: 783485
    URB status: Success (0)
    URB length [bytes]: 30
    Data length [bytes]: 30
    [Request in: 1481]
    [Time from request: 0.003977000 seconds]
    [bInterfaceClass: Unknown (0xffff)]
    Unused Setup Header
    Interval: 2
    Start frame: 0
    Copy of Transfer Flags: 0x00000204
    Number of ISO descriptors: 0
Leftover Capture Data: 23b50f87806a55ff2600351018000100f5ff1b09484df81a...

0000  00 19 c3 e4 44 95 ff ff 43 01 81 0d 01 00 2d 00   ....D...C.....-.
0010  d1 d4 9f 5f 00 00 00 00 7d f4 0b 00 00 00 00 00   ..._....}.......
0020  1e 00 00 00 1e 00 00 00 00 00 00 00 00 00 00 00   ................
0030  02 00 00 00 00 00 00 00 04 02 00 00 00 00 00 00   ................
0040  23 b5 0f 87 80 6a 55 ff 26 00 35 10 18 00 01 00   #....jU.&.5.....
0050  f5 ff 1b 09 48 4d f8 1a 4d a4 07 02 64 82         ....HM..M...d.

No.     Time           Source                Destination           Protocol Length Info
   1484 22.956458      1.13.1                host                  USB      94     URB_INTERRUPT in

Frame 1484: 94 bytes on wire (752 bits), 94 bytes captured (752 bits) on interface 0
USB URB
    [Source: 1.13.1]
    [Destination: host]
    URB id: 0xffff9544e4c31900
    URB type: URB_COMPLETE ('C')
    URB transfer type: URB_INTERRUPT (0x01)
    Endpoint: 0x81, Direction: IN
    Device: 13
    URB bus id: 1
    Device setup request: not relevant ('-')
    Data: present (0)
    URB sec: 1604310225
    URB usec: 785479
    URB status: Success (0)
    URB length [bytes]: 30
    Data length [bytes]: 30
    [Request in: 1483]
    [Time from request: 0.001969000 seconds]
    [bInterfaceClass: Unknown (0xffff)]
    Unused Setup Header
    Interval: 2
    Start frame: 0
    Copy of Transfer Flags: 0x00000204
    Number of ISO descriptors: 0
Leftover Capture Data: 23b50f8a80555bff2400351019000200f4ffe7bbfe8bf81a...

0000  00 19 c3 e4 44 95 ff ff 43 01 81 0d 01 00 2d 00   ....D...C.....-.
0010  d1 d4 9f 5f 00 00 00 00 47 fc 0b 00 00 00 00 00   ..._....G.......
0020  1e 00 00 00 1e 00 00 00 00 00 00 00 00 00 00 00   ................
0030  02 00 00 00 00 00 00 00 04 02 00 00 00 00 00 00   ................
0040  23 b5 0f 8a 80 55 5b ff 24 00 35 10 19 00 02 00   #....U[.$.5.....
0050  f4 ff e7 bb fe 8b f8 1a 4d a4 07 02 64 82         ........M...d.

No.     Time           Source                Destination           Protocol Length Info
   1486 22.962454      1.13.1                host                  USB      94     URB_INTERRUPT in

Frame 1486: 94 bytes on wire (752 bits), 94 bytes captured (752 bits) on interface 0
USB URB
    [Source: 1.13.1]
    [Destination: host]
    URB id: 0xffff9544e4c31900
    URB type: URB_COMPLETE ('C')
    URB transfer type: URB_INTERRUPT (0x01)
    Endpoint: 0x81, Direction: IN
    Device: 13
    URB bus id: 1
    Device setup request: not relevant ('-')
    Data: present (0)
    URB sec: 1604310225
    URB usec: 791475
    URB status: Success (0)
    URB length [bytes]: 30
    Data length [bytes]: 30
    [Request in: 1485]
    [Time from request: 0.005978000 seconds]
    [bInterfaceClass: Unknown (0xffff)]
    Unused Setup Header
    Interval: 2
    Start frame: 0
    Copy of Transfer Flags: 0x00000204
    Number of ISO descriptors: 0
Leftover Capture Data: 23b50f8d804057ff2900321019000100f6ff1fe2e76af81a...

0000  00 19 c3 e4 44 95 ff ff 43 01 81 0d 01 00 2d 00   ....D...C.....-.
0010  d1 d4 9f 5f 00 00 00 00 b3 13 0c 00 00 00 00 00   ..._............
0020  1e 00 00 00 1e 00 00 00 00 00 00 00 00 00 00 00   ................
0030  02 00 00 00 00 00 00 00 04 02 00 00 00 00 00 00   ................
0040  23 b5 0f 8d 80 40 57 ff 29 00 32 10 19 00 01 00   #....@W.).2.....
0050  f6 ff 1f e2 e7 6a f8 1a 4d a4 07 02 64 82         .....j..M...d.

No.     Time           Source                Destination           Protocol Length Info
   1488 22.966451      1.13.1                host                  USB      94     URB_INTERRUPT in

Frame 1488: 94 bytes on wire (752 bits), 94 bytes captured (752 bits) on interface 0
USB URB
    [Source: 1.13.1]
    [Destination: host]
    URB id: 0xffff9544e4c31900
    URB type: URB_COMPLETE ('C')
    URB transfer type: URB_INTERRUPT (0x01)
    Endpoint: 0x81, Direction: IN
    Device: 13
    URB bus id: 1
    Device setup request: not relevant ('-')
    Data: present (0)
    URB sec: 1604310225
    URB usec: 795472
    URB status: Success (0)
    URB length [bytes]: 30
    Data length [bytes]: 30
    [Request in: 1487]
    [Time from request: 0.003973000 seconds]
    [bInterfaceClass: Unknown (0xffff)]
    Unused Setup Header
    Interval: 2
    Start frame: 0
    Copy of Transfer Flags: 0x00000204
    Number of ISO descriptors: 0
Leftover Capture Data: 23b50f90802b5dff350036101a000200f5ffa9c2cefcf81a...

0000  00 19 c3 e4 44 95 ff ff 43 01 81 0d 01 00 2d 00   ....D...C.....-.
0010  d1 d4 9f 5f 00 00 00 00 50 23 0c 00 00 00 00 00   ..._....P#......
0020  1e 00 00 00 1e 00 00 00 00 00 00 00 00 00 00 00   ................
0030  02 00 00 00 00 00 00 00 04 02 00 00 00 00 00 00   ................
0040  23 b5 0f 90 80 2b 5d ff 35 00 36 10 1a 00 02 00   #....+].5.6.....
0050  f5 ff a9 c2 ce fc f8 1a 4d a4 07 02 64 82         ........M...d.

No.     Time           Source                Destination           Protocol Length Info
   1490 22.968442      1.13.1                host                  USB      94     URB_INTERRUPT in

Frame 1490: 94 bytes on wire (752 bits), 94 bytes captured (752 bits) on interface 0
USB URB
    [Source: 1.13.1]
    [Destination: host]
    URB id: 0xffff9544e4c31900
    URB type: URB_COMPLETE ('C')
    URB transfer type: URB_INTERRUPT (0x01)
    Endpoint: 0x81, Direction: IN
    Device: 13
    URB bus id: 1
    Device setup request: not relevant ('-')
    Data: present (0)
    URB sec: 1604310225
    URB usec: 797463
    URB status: Success (0)
    URB length [bytes]: 30
    Data length [bytes]: 30
    [Request in: 1489]
    [Time from request: 0.001968000 seconds]
    [bInterfaceClass: Unknown (0xffff)]
    Unused Setup Header
    Interval: 2
    Start frame: 0
    Copy of Transfer Flags: 0x00000204
    Number of ISO descriptors: 0
Leftover Capture Data: 23b50f93801663ff25002c1018000100f6ff2dfde2f0f81a...

0000  00 19 c3 e4 44 95 ff ff 43 01 81 0d 01 00 2d 00   ....D...C.....-.
0010  d1 d4 9f 5f 00 00 00 00 17 2b 0c 00 00 00 00 00   ..._.....+......
0020  1e 00 00 00 1e 00 00 00 00 00 00 00 00 00 00 00   ................
0030  02 00 00 00 00 00 00 00 04 02 00 00 00 00 00 00   ................
0040  23 b5 0f 93 80 16 63 ff 25 00 2c 10 18 00 01 00   #.....c.%.,.....
0050  f6 ff 2d fd e2 f0 f8 1a 4d a4 07 02 64 82         ..-.....M...d.

No.     Time           Source                Destination           Protocol Length Info
   1492 22.974455      1.13.1                host                  USB      94     URB_INTERRUPT in

Frame 1492: 94 bytes on wire (752 bits), 94 bytes captured (752 bits) on interface 0
USB URB
    [Source: 1.13.1]
    [Destination: host]
    URB id: 0xffff9544e4c31900
    URB type: URB_COMPLETE ('C')
    URB transfer type: URB_INTERRUPT (0x01)
    Endpoint: 0x81, Direction: IN
    Device: 13
    URB bus id: 1
    Device setup request: not relevant ('-')
    Data: present (0)
    URB sec: 1604310225
    URB usec: 803476
    URB status: Success (0)
    URB length [bytes]: 30
    Data length [bytes]: 30
    [Request in: 1491]
    [Time from request: 0.005995000 seconds]
    [bInterfaceClass: Unknown (0xffff)]
    Unused Setup Header
    Interval: 2
    Start frame: 0
    Copy of Transfer Flags: 0x00000204
    Number of ISO descriptors: 0
Leftover Capture Data: 23b50f9680014fff2d002d1019000200f6ff2029aae2f81a...

0000  00 19 c3 e4 44 95 ff ff 43 01 81 0d 01 00 2d 00   ....D...C.....-.
0010  d1 d4 9f 5f 00 00 00 00 94 42 0c 00 00 00 00 00   ..._.....B......
0020  1e 00 00 00 1e 00 00 00 00 00 00 00 00 00 00 00   ................
0030  02 00 00 00 00 00 00 00 04 02 00 00 00 00 00 00   ................
0040  23 b5 0f 96 80 01 4f ff 2d 00 2d 10 19 00 02 00   #.....O.-.-.....
0050  f6 ff 20 29 aa e2 f8 1a 4d a4 07 02 64 82         .. )....M...d.

No.     Time           Source                Destination           Protocol Length Info
   1494 22.978485      1.13.1                host                  USB      94     URB_INTERRUPT in

Frame 1494: 94 bytes on wire (752 bits), 94 bytes captured (752 bits) on interface 0
USB URB
    [Source: 1.13.1]
    [Destination: host]
    URB id: 0xffff9544e4c31900
    URB type: URB_COMPLETE ('C')
    URB transfer type: URB_INTERRUPT (0x01)
    Endpoint: 0x81, Direction: IN
    Device: 13
    URB bus id: 1
    Device setup request: not relevant ('-')
    Data: present (0)
    URB sec: 1604310225
    URB usec: 807506
    URB status: Success (0)
    URB length [bytes]: 30
    Data length [bytes]: 30
    [Request in: 1493]
    [Time from request: 0.004004000 seconds]
    [bInterfaceClass: Unknown (0xffff)]
    Unused Setup Header
    Interval: 2
    Start frame: 0
    Copy of Transfer Flags: 0x00000204
    Number of ISO descriptors: 0
Leftover Capture Data: 23b50f9880ec5fff37002e1018000200f5ff77e2a97bf81a...

0000  00 19 c3 e4 44 95 ff ff 43 01 81 0d 01 00 2d 00   ....D...C.....-.
0010  d1 d4 9f 5f 00 00 00 00 52 52 0c 00 00 00 00 00   ..._....RR......
0020  1e 00 00 00 1e 00 00 00 00 00 00 00 00 00 00 00   ................
0030  02 00 00 00 00 00 00 00 04 02 00 00 00 00 00 00   ................
0040  23 b5 0f 98 80 ec 5f ff 37 00 2e 10 18 00 02 00   #....._.7.......
0050  f5 ff 77 e2 a9 7b f8 1a 4d a4 07 02 64 82         ..w..{..M...d.

No.     Time           Source                Destination           Protocol Length Info
   1496 22.980479      1.13.1                host                  USB      94     URB_INTERRUPT in

Frame 1496: 94 bytes on wire (752 bits), 94 bytes captured (752 bits) on interface 0
USB URB
    [Source: 1.13.1]
    [Destination: host]
    URB id: 0xffff9544e4c31900
    URB type: URB_COMPLETE ('C')
    URB transfer type: URB_INTERRUPT (0x01)
    Endpoint: 0x81, Direction: IN
    Device: 13
    URB bus id: 1
    Device setup request: not relevant ('-')
    Data: present (0)
    URB sec: 1604310225
    URB usec: 809500
    URB status: Success (0)
    URB length [bytes]: 30
    Data length [bytes]: 30
    [Request in: 1495]
    [Time from request: 0.001970000 seconds]
    [bInterfaceClass: Unknown (0xffff)]
    Unused Setup Header
    Interval: 2
    Start frame: 0
    Copy of Transfer Flags: 0x00000204
    Number of ISO descriptors: 0
Leftover Capture Data: 23b50f9b80d75cff2700351017000100f6ff4714d119f81a...

0000  00 19 c3 e4 44 95 ff ff 43 01 81 0d 01 00 2d 00   ....D...C.....-.
0010  d1 d4 9f 5f 00 00 00 00 1c 5a 0c 00 00 00 00 00   ..._.....Z......
0020  1e 00 00 00 1e 00 00 00 00 00 00 00 00 00 00 00   ................
0030  02 00 00 00 00 00 00 00 04 02 00 00 00 00 00 00   ................
0040  23 b5 0f 9b 80 d7 5c ff 27 00 35 10 17 00 01 00   #.....\.'.5.....
0050  f6 ff 47 14 d1 19 f8 1a 4d a4 07 02 64 82         ..G.....M...d.

No.     Time           Source                Destination           Protocol Length Info
   1498 22.986584      1.13.1                host                  USB      94     URB_INTERRUPT in

Frame 1498: 94 bytes on wire (752 bits), 94 bytes captured (752 bits) on interface 0
USB URB
    [Source: 1.13.1]
    [Destination: host]
    URB id: 0xffff9544e4c31900
    URB type: URB_COMPLETE ('C')
    URB transfer type: URB_INTERRUPT (0x01)
    Endpoint: 0x81, Direction: IN
    Device: 13
    URB bus id: 1
    Device setup request: not relevant ('-')
    Data: present (0)
    URB sec: 1604310225
    URB usec: 815605
    URB status: Success (0)
    URB length [bytes]: 30
    Data length [bytes]: 30
    [Request in: 1497]
    [Time from request: 0.006079000 seconds]
    [bInterfaceClass: Unknown (0xffff)]
    Unused Setup Header
    Interval: 2
    Start frame: 0
    Copy of Transfer Flags: 0x00000204
    Number of ISO descriptors: 0
Leftover Capture Data: 23b50f9e80c252ff2f00361015000000f4fff198fdfaf81a...

0000  00 19 c3 e4 44 95 ff ff 43 01 81 0d 01 00 2d 00   ....D...C.....-.
0010  d1 d4 9f 5f 00 00 00 00 f5 71 0c 00 00 00 00 00   ..._.....q......
0020  1e 00 00 00 1e 00 00 00 00 00 00 00 00 00 00 00   ................
0030  02 00 00 00 00 00 00 00 04 02 00 00 00 00 00 00   ................
0040  23 b5 0f 9e 80 c2 52 ff 2f 00 36 10 15 00 00 00   #.....R./.6.....
0050  f4 ff f1 98 fd fa f8 1a 4d a4 07 02 64 82         ........M...d.

No.     Time           Source                Destination           Protocol Length Info
   1500 22.990477      1.13.1                host                  USB      94     URB_INTERRUPT in

Frame 1500: 94 bytes on wire (752 bits), 94 bytes captured (752 bits) on interface 0
USB URB
    [Source: 1.13.1]
    [Destination: host]
    URB id: 0xffff9544e4c31900
    URB type: URB_COMPLETE ('C')
    URB transfer type: URB_INTERRUPT (0x01)
    Endpoint: 0x81, Direction: IN
    Device: 13
    URB bus id: 1
    Device setup request: not relevant ('-')
    Data: present (0)
    URB sec: 1604310225
    URB usec: 819498
    URB status: Success (0)
    URB length [bytes]: 30
    Data length [bytes]: 30
    [Request in: 1499]
    [Time from request: 0.003867000 seconds]
    [bInterfaceClass: Unknown (0xffff)]
    Unused Setup Header
    Interval: 2
    Start frame: 0
    Copy of Transfer Flags: 0x00000204
    Number of ISO descriptors: 0
Leftover Capture Data: 23b50fa180ad55ff2f00261015000100f5ff40a61261f81a...

0000  00 19 c3 e4 44 95 ff ff 43 01 81 0d 01 00 2d 00   ....D...C.....-.
0010  d1 d4 9f 5f 00 00 00 00 2a 81 0c 00 00 00 00 00   ..._....*.......
0020  1e 00 00 00 1e 00 00 00 00 00 00 00 00 00 00 00   ................
0030  02 00 00 00 00 00 00 00 04 02 00 00 00 00 00 00   ................
0040  23 b5 0f a1 80 ad 55 ff 2f 00 26 10 15 00 01 00   #.....U./.&.....
0050  f5 ff 40 a6 12 61 f8 1a 4d a4 07 02 64 82         ..@..a..M...d.

No.     Time           Source                Destination           Protocol Length Info
   1502 22.992613      1.13.1                host                  USB      94     URB_INTERRUPT in

Frame 1502: 94 bytes on wire (752 bits), 94 bytes captured (752 bits) on interface 0
USB URB
    [Source: 1.13.1]
    [Destination: host]
    URB id: 0xffff9544e4c31900
    URB type: URB_COMPLETE ('C')
    URB transfer type: URB_INTERRUPT (0x01)
    Endpoint: 0x81, Direction: IN
    Device: 13
    URB bus id: 1
    Device setup request: not relevant ('-')
    Data: present (0)
    URB sec: 1604310225
    URB usec: 821634
    URB status: Success (0)
    URB length [bytes]: 30
    Data length [bytes]: 30
    [Request in: 1501]
    [Time from request: 0.002109000 seconds]
    [bInterfaceClass: Unknown (0xffff)]
    Unused Setup Header
    Interval: 2
    Start frame: 0
    Copy of Transfer Flags: 0x00000204
    Number of ISO descriptors: 0
Leftover Capture Data: 23b50fa4809863ff22002a1013000200f5ff9264517af81a...

0000  00 19 c3 e4 44 95 ff ff 43 01 81 0d 01 00 2d 00   ....D...C.....-.
0010  d1 d4 9f 5f 00 00 00 00 82 89 0c 00 00 00 00 00   ..._............
0020  1e 00 00 00 1e 00 00 00 00 00 00 00 00 00 00 00   ................
0030  02 00 00 00 00 00 00 00 04 02 00 00 00 00 00 00   ................
0040  23 b5 0f a4 80 98 63 ff 22 00 2a 10 13 00 02 00   #.....c.".*.....
0050  f5 ff 92 64 51 7a f8 1a 4d a4 07 02 64 82         ...dQz..M...d.

No.     Time           Source                Destination           Protocol Length Info
   1504 22.998472      1.13.1                host                  USB      94     URB_INTERRUPT in

Frame 1504: 94 bytes on wire (752 bits), 94 bytes captured (752 bits) on interface 0
USB URB
    [Source: 1.13.1]
    [Destination: host]
    URB id: 0xffff9544e4c31900
    URB type: URB_COMPLETE ('C')
    URB transfer type: URB_INTERRUPT (0x01)
    Endpoint: 0x81, Direction: IN
    Device: 13
    URB bus id: 1
    Device setup request: not relevant ('-')
    Data: present (0)
    URB sec: 1604310225
    URB usec: 827493
    URB status: Success (0)
    URB length [bytes]: 30
    Data length [bytes]: 30
    [Request in: 1503]
    [Time from request: 0.005831000 seconds]
    [bInterfaceClass: Unknown (0xffff)]
    Unused Setup Header
    Interval: 2
    Start frame: 0
    Copy of Transfer Flags: 0x00000204
    Number of ISO descriptors: 0
Leftover Capture Data: 23b50fa7808361ff4100321014000100f4ff76d62efef81a...

0000  00 19 c3 e4 44 95 ff ff 43 01 81 0d 01 00 2d 00   ....D...C.....-.
0010  d1 d4 9f 5f 00 00 00 00 65 a0 0c 00 00 00 00 00   ..._....e.......
0020  1e 00 00 00 1e 00 00 00 00 00 00 00 00 00 00 00   ................
0030  02 00 00 00 00 00 00 00 04 02 00 00 00 00 00 00   ................
0040  23 b5 0f a7 80 83 61 ff 41 00 32 10 14 00 01 00   #.....a.A.2.....
0050  f4 ff 76 d6 2e fe f8 1a 4d a4 07 02 64 82         ..v.....M...d.

No.     Time           Source                Destination           Protocol Length Info
   1506 23.002446      1.13.1                host                  USB      94     URB_INTERRUPT in

Frame 1506: 94 bytes on wire (752 bits), 94 bytes captured (752 bits) on interface 0
USB URB
    [Source: 1.13.1]
    [Destination: host]
    URB id: 0xffff9544e4c31900
    URB type: URB_COMPLETE ('C')
    URB transfer type: URB_INTERRUPT (0x01)
    Endpoint: 0x81, Direction: IN
    Device: 13
    URB bus id: 1
    Device setup request: not relevant ('-')
    Data: present (0)
    URB sec: 1604310225
    URB usec: 831467
    URB status: Success (0)
    URB length [bytes]: 30
    Data length [bytes]: 30
    [Request in: 1505]
    [Time from request: 0.003945000 seconds]
    [bInterfaceClass: Unknown (0xffff)]
    Unused Setup Header
    Interval: 2
    Start frame: 0
    Copy of Transfer Flags: 0x00000204
    Number of ISO descriptors: 0
Leftover Capture Data: 23b50faa806e5eff2b003c1016000100f5ff40aa90b9f81a...

0000  00 19 c3 e4 44 95 ff ff 43 01 81 0d 01 00 2d 00   ....D...C.....-.
0010  d1 d4 9f 5f 00 00 00 00 eb af 0c 00 00 00 00 00   ..._............
0020  1e 00 00 00 1e 00 00 00 00 00 00 00 00 00 00 00   ................
0030  02 00 00 00 00 00 00 00 04 02 00 00 00 00 00 00   ................
0040  23 b5 0f aa 80 6e 5e ff 2b 00 3c 10 16 00 01 00   #....n^.+.<.....
0050  f5 ff 40 aa 90 b9 f8 1a 4d a4 07 02 64 82         ..@.....M...d.

No.     Time           Source                Destination           Protocol Length Info
   1508 23.004464      1.13.1                host                  USB      94     URB_INTERRUPT in

Frame 1508: 94 bytes on wire (752 bits), 94 bytes captured (752 bits) on interface 0
USB URB
    [Source: 1.13.1]
    [Destination: host]
    URB id: 0xffff9544e4c31900
    URB type: URB_COMPLETE ('C')
    URB transfer type: URB_INTERRUPT (0x01)
    Endpoint: 0x81, Direction: IN
    Device: 13
    URB bus id: 1
    Device setup request: not relevant ('-')
    Data: present (0)
    URB sec: 1604310225
    URB usec: 833485
    URB status: Success (0)
    URB length [bytes]: 30
    Data length [bytes]: 30
    [Request in: 1507]
    [Time from request: 0.001992000 seconds]
    [bInterfaceClass: Unknown (0xffff)]
    Unused Setup Header
    Interval: 2
    Start frame: 0
    Copy of Transfer Flags: 0x00000204
    Number of ISO descriptors: 0
Leftover Capture Data: 23b50fad805a5cff2300281016000200f5ff54721105f81a...

0000  00 19 c3 e4 44 95 ff ff 43 01 81 0d 01 00 2d 00   ....D...C.....-.
0010  d1 d4 9f 5f 00 00 00 00 cd b7 0c 00 00 00 00 00   ..._............
0020  1e 00 00 00 1e 00 00 00 00 00 00 00 00 00 00 00   ................
0030  02 00 00 00 00 00 00 00 04 02 00 00 00 00 00 00   ................
0040  23 b5 0f ad 80 5a 5c ff 23 00 28 10 16 00 02 00   #....Z\.#.(.....
0050  f5 ff 54 72 11 05 f8 1a 4d a4 07 02 64 82         ..Tr....M...d.

No.     Time           Source                Destination           Protocol Length Info
   1510 23.010610      1.13.1                host                  USB      94     URB_INTERRUPT in

Frame 1510: 94 bytes on wire (752 bits), 94 bytes captured (752 bits) on interface 0
USB URB
    [Source: 1.13.1]
    [Destination: host]
    URB id: 0xffff9544e4c31900
    URB type: URB_COMPLETE ('C')
    URB transfer type: URB_INTERRUPT (0x01)
    Endpoint: 0x81, Direction: IN
    Device: 13
    URB bus id: 1
    Device setup request: not relevant ('-')
    Data: present (0)
    URB sec: 1604310225
    URB usec: 839631
    URB status: Success (0)
    URB length [bytes]: 30
    Data length [bytes]: 30
    [Request in: 1509]
    [Time from request: 0.006126000 seconds]
    [bInterfaceClass: Unknown (0xffff)]
    Unused Setup Header
    Interval: 2
    Start frame: 0
    Copy of Transfer Flags: 0x00000204
    Number of ISO descriptors: 0
Leftover Capture Data: 23b50fb0804569ff2b00351014000200f5ff82bcab06f81a...

0000  00 19 c3 e4 44 95 ff ff 43 01 81 0d 01 00 2d 00   ....D...C.....-.
0010  d1 d4 9f 5f 00 00 00 00 cf cf 0c 00 00 00 00 00   ..._............
0020  1e 00 00 00 1e 00 00 00 00 00 00 00 00 00 00 00   ................
0030  02 00 00 00 00 00 00 00 04 02 00 00 00 00 00 00   ................
0040  23 b5 0f b0 80 45 69 ff 2b 00 35 10 14 00 02 00   #....Ei.+.5.....
0050  f5 ff 82 bc ab 06 f8 1a 4d a4 07 02 64 82         ........M...d.

No.     Time           Source                Destination           Protocol Length Info
   1512 23.014439      1.13.1                host                  USB      94     URB_INTERRUPT in

Frame 1512: 94 bytes on wire (752 bits), 94 bytes captured (752 bits) on interface 0
USB URB
    [Source: 1.13.1]
    [Destination: host]
    URB id: 0xffff9544e4c31900
    URB type: URB_COMPLETE ('C')
    URB transfer type: URB_INTERRUPT (0x01)
    Endpoint: 0x81, Direction: IN
    Device: 13
    URB bus id: 1
    Device setup request: not relevant ('-')
    Data: present (0)
    URB sec: 1604310225
    URB usec: 843460
    URB status: Success (0)
    URB length [bytes]: 30
    Data length [bytes]: 30
    [Request in: 1511]
    [Time from request: 0.003802000 seconds]
    [bInterfaceClass: Unknown (0xffff)]
    Unused Setup Header
    Interval: 2
    Start frame: 0
    Copy of Transfer Flags: 0x00000204
    Number of ISO descriptors: 0
Leftover Capture Data: 23b50fb3803058ff2c003e1014000100f5ffba5b7e95f81a...

0000  00 19 c3 e4 44 95 ff ff 43 01 81 0d 01 00 2d 00   ....D...C.....-.
0010  d1 d4 9f 5f 00 00 00 00 c4 de 0c 00 00 00 00 00   ..._............
0020  1e 00 00 00 1e 00 00 00 00 00 00 00 00 00 00 00   ................
0030  02 00 00 00 00 00 00 00 04 02 00 00 00 00 00 00   ................
0040  23 b5 0f b3 80 30 58 ff 2c 00 3e 10 14 00 01 00   #....0X.,.>.....
0050  f5 ff ba 5b 7e 95 f8 1a 4d a4 07 02 64 82         ...[~...M...d.

No.     Time           Source                Destination           Protocol Length Info
   1514 23.016584      1.13.1                host                  USB      94     URB_INTERRUPT in

Frame 1514: 94 bytes on wire (752 bits), 94 bytes captured (752 bits) on interface 0
USB URB
    [Source: 1.13.1]
    [Destination: host]
    URB id: 0xffff9544e4c31900
    URB type: URB_COMPLETE ('C')
    URB transfer type: URB_INTERRUPT (0x01)
    Endpoint: 0x81, Direction: IN
    Device: 13
    URB bus id: 1
    Device setup request: not relevant ('-')
    Data: present (0)
    URB sec: 1604310225
    URB usec: 845605
    URB status: Success (0)
    URB length [bytes]: 30
    Data length [bytes]: 30
    [Request in: 1513]
    [Time from request: 0.002118000 seconds]
    [bInterfaceClass: Unknown (0xffff)]
    Unused Setup Header
    Interval: 2
    Start frame: 0
    Copy of Transfer Flags: 0x00000204
    Number of ISO descriptors: 0
Leftover Capture Data: 23b50fb6801b69ff3400301013000200f5ff4fba6571f81a...

0000  00 19 c3 e4 44 95 ff ff 43 01 81 0d 01 00 2d 00   ....D...C.....-.
0010  d1 d4 9f 5f 00 00 00 00 25 e7 0c 00 00 00 00 00   ..._....%.......
0020  1e 00 00 00 1e 00 00 00 00 00 00 00 00 00 00 00   ................
0030  02 00 00 00 00 00 00 00 04 02 00 00 00 00 00 00   ................
0040  23 b5 0f b6 80 1b 69 ff 34 00 30 10 13 00 02 00   #.....i.4.0.....
0050  f5 ff 4f ba 65 71 f8 1a 4d a4 07 02 64 82         ..O.eq..M...d.

No.     Time           Source                Destination           Protocol Length Info
   1516 23.022547      1.13.1                host                  USB      94     URB_INTERRUPT in

Frame 1516: 94 bytes on wire (752 bits), 94 bytes captured (752 bits) on interface 0
USB URB
    [Source: 1.13.1]
    [Destination: host]
    URB id: 0xffff9544e4c31900
    URB type: URB_COMPLETE ('C')
    URB transfer type: URB_INTERRUPT (0x01)
    Endpoint: 0x81, Direction: IN
    Device: 13
    URB bus id: 1
    Device setup request: not relevant ('-')
    Data: present (0)
    URB sec: 1604310225
    URB usec: 851568
    URB status: Success (0)
    URB length [bytes]: 30
    Data length [bytes]: 30
    [Request in: 1515]
    [Time from request: 0.005937000 seconds]
    [bInterfaceClass: Unknown (0xffff)]
    Unused Setup Header
    Interval: 2
    Start frame: 0
    Copy of Transfer Flags: 0x00000204
    Number of ISO descriptors: 0
Leftover Capture Data: 23b50fb9800663ff2c00351014000300f5fff761e21bf81a...

0000  00 19 c3 e4 44 95 ff ff 43 01 81 0d 01 00 2d 00   ....D...C.....-.
0010  d1 d4 9f 5f 00 00 00 00 70 fe 0c 00 00 00 00 00   ..._....p.......
0020  1e 00 00 00 1e 00 00 00 00 00 00 00 00 00 00 00   ................
0030  02 00 00 00 00 00 00 00 04 02 00 00 00 00 00 00   ................
0040  23 b5 0f b9 80 06 63 ff 2c 00 35 10 14 00 03 00   #.....c.,.5.....
0050  f5 ff f7 61 e2 1b f8 1a 4d a4 07 02 64 82         ...a....M...d.

No.     Time           Source                Destination           Protocol Length Info
   1518 23.026475      1.13.1                host                  USB      94     URB_INTERRUPT in

Frame 1518: 94 bytes on wire (752 bits), 94 bytes captured (752 bits) on interface 0
USB URB
    [Source: 1.13.1]
    [Destination: host]
    URB id: 0xffff9544e4c31900
    URB type: URB_COMPLETE ('C')
    URB transfer type: URB_INTERRUPT (0x01)
    Endpoint: 0x81, Direction: IN
    Device: 13
    URB bus id: 1
    Device setup request: not relevant ('-')
    Data: present (0)
    URB sec: 1604310225
    URB usec: 855496
    URB status: Success (0)
    URB length [bytes]: 30
    Data length [bytes]: 30
    [Request in: 1517]
    [Time from request: 0.003901000 seconds]
    [bInterfaceClass: Unknown (0xffff)]
    Unused Setup Header
    Interval: 2
    Start frame: 0
    Copy of Transfer Flags: 0x00000204
    Number of ISO descriptors: 0
Leftover Capture Data: 23b50fbb80f15bff2f002f1015000000f6ff9f30b5e7f81a...

0000  00 19 c3 e4 44 95 ff ff 43 01 81 0d 01 00 2d 00   ....D...C.....-.
0010  d1 d4 9f 5f 00 00 00 00 c8 0d 0d 00 00 00 00 00   ..._............
0020  1e 00 00 00 1e 00 00 00 00 00 00 00 00 00 00 00   ................
0030  02 00 00 00 00 00 00 00 04 02 00 00 00 00 00 00   ................
0040  23 b5 0f bb 80 f1 5b ff 2f 00 2f 10 15 00 00 00   #.....[././.....
0050  f6 ff 9f 30 b5 e7 f8 1a 4d a4 07 02 64 82         ...0....M...d.

No.     Time           Source                Destination           Protocol Length Info
   1520 23.028433      1.13.1                host                  USB      94     URB_INTERRUPT in

Frame 1520: 94 bytes on wire (752 bits), 94 bytes captured (752 bits) on interface 0
USB URB
    [Source: 1.13.1]
    [Destination: host]
    URB id: 0xffff9544e4c31900
    URB type: URB_COMPLETE ('C')
    URB transfer type: URB_INTERRUPT (0x01)
    Endpoint: 0x81, Direction: IN
    Device: 13
    URB bus id: 1
    Device setup request: not relevant ('-')
    Data: present (0)
    URB sec: 1604310225
    URB usec: 857454
    URB status: Success (0)
    URB length [bytes]: 30
    Data length [bytes]: 30
    [Request in: 1519]
    [Time from request: 0.001932000 seconds]
    [bInterfaceClass: Unknown (0xffff)]
    Unused Setup Header
    Interval: 2
    Start frame: 0
    Copy of Transfer Flags: 0x00000204
    Number of ISO descriptors: 0
Leftover Capture Data: 23b50fbe80dc66ff2700341016000100f6ffa938ca52f81a...

0000  00 19 c3 e4 44 95 ff ff 43 01 81 0d 01 00 2d 00   ....D...C.....-.
0010  d1 d4 9f 5f 00 00 00 00 6e 15 0d 00 00 00 00 00   ..._....n.......
0020  1e 00 00 00 1e 00 00 00 00 00 00 00 00 00 00 00   ................
0030  02 00 00 00 00 00 00 00 04 02 00 00 00 00 00 00   ................
0040  23 b5 0f be 80 dc 66 ff 27 00 34 10 16 00 01 00   #.....f.'.4.....
0050  f6 ff a9 38 ca 52 f8 1a 4d a4 07 02 64 82         ...8.R..M...d.

No.     Time           Source                Destination           Protocol Length Info
   1522 23.034448      1.13.1                host                  USB      94     URB_INTERRUPT in

Frame 1522: 94 bytes on wire (752 bits), 94 bytes captured (752 bits) on interface 0
USB URB
    [Source: 1.13.1]
    [Destination: host]
    URB id: 0xffff9544e4c31900
    URB type: URB_COMPLETE ('C')
    URB transfer type: URB_INTERRUPT (0x01)
    Endpoint: 0x81, Direction: IN
    Device: 13
    URB bus id: 1
    Device setup request: not relevant ('-')
    Data: present (0)
    URB sec: 1604310225
    URB usec: 863469
    URB status: Success (0)
    URB length [bytes]: 30
    Data length [bytes]: 30
    [Request in: 1521]
    [Time from request: 0.005995000 seconds]
    [bInterfaceClass: Unknown (0xffff)]
    Unused Setup Header
    Interval: 2
    Start frame: 0
    Copy of Transfer Flags: 0x00000204
    Number of ISO descriptors: 0
Leftover Capture Data: 23b50fc180c75dff2300301016000100f6ff3ea9bbcbf81a...

0000  00 19 c3 e4 44 95 ff ff 43 01 81 0d 01 00 2d 00   ....D...C.....-.
0010  d1 d4 9f 5f 00 00 00 00 ed 2c 0d 00 00 00 00 00   ..._.....,......
0020  1e 00 00 00 1e 00 00 00 00 00 00 00 00 00 00 00   ................
0030  02 00 00 00 00 00 00 00 04 02 00 00 00 00 00 00   ................
0040  23 b5 0f c1 80 c7 5d ff 23 00 30 10 16 00 01 00   #.....].#.0.....
0050  f6 ff 3e a9 bb cb f8 1a 4d a4 07 02 64 82         ..>.....M...d.

No.     Time           Source                Destination           Protocol Length Info
   1524 23.036464      1.13.1                host                  USB      94     URB_INTERRUPT in

Frame 1524: 94 bytes on wire (752 bits), 94 bytes captured (752 bits) on interface 0
USB URB
    [Source: 1.13.1]
    [Destination: host]
    URB id: 0xffff9544e4c31900
    URB type: URB_COMPLETE ('C')
    URB transfer type: URB_INTERRUPT (0x01)
    Endpoint: 0x81, Direction: IN
    Device: 13
    URB bus id: 1
    Device setup request: not relevant ('-')
    Data: present (0)
    URB sec: 1604310225
    URB usec: 865485
    URB status: Success (0)
    URB length [bytes]: 30
    Data length [bytes]: 30
    [Request in: 1523]
    [Time from request: 0.001989000 seconds]
    [bInterfaceClass: Unknown (0xffff)]
    Unused Setup Header
    Interval: 2
    Start frame: 0
    Copy of Transfer Flags: 0x00000204
    Number of ISO descriptors: 0
Leftover Capture Data: 23b50fc480b258ff3300311017000200f5ff3eade998f81a...

0000  00 19 c3 e4 44 95 ff ff 43 01 81 0d 01 00 2d 00   ....D...C.....-.
0010  d1 d4 9f 5f 00 00 00 00 cd 34 0d 00 00 00 00 00   ..._.....4......
0020  1e 00 00 00 1e 00 00 00 00 00 00 00 00 00 00 00   ................
0030  02 00 00 00 00 00 00 00 04 02 00 00 00 00 00 00   ................
0040  23 b5 0f c4 80 b2 58 ff 33 00 31 10 17 00 02 00   #.....X.3.1.....
0050  f5 ff 3e ad e9 98 f8 1a 4d a4 07 02 64 82         ..>.....M...d.

No.     Time           Source                Destination           Protocol Length Info
   1526 23.040418      1.13.1                host                  USB      94     URB_INTERRUPT in

Frame 1526: 94 bytes on wire (752 bits), 94 bytes captured (752 bits) on interface 0
USB URB
    [Source: 1.13.1]
    [Destination: host]
    URB id: 0xffff9544e4c31900
    URB type: URB_COMPLETE ('C')
    URB transfer type: URB_INTERRUPT (0x01)
    Endpoint: 0x81, Direction: IN
    Device: 13
    URB bus id: 1
    Device setup request: not relevant ('-')
    Data: present (0)
    URB sec: 1604310225
    URB usec: 869439
    URB status: Success (0)
    URB length [bytes]: 30
    Data length [bytes]: 30
    [Request in: 1525]
    [Time from request: 0.003934000 seconds]
    [bInterfaceClass: Unknown (0xffff)]
    Unused Setup Header
    Interval: 2
    Start frame: 0
    Copy of Transfer Flags: 0x00000204
    Number of ISO descriptors: 0
Leftover Capture Data: 23b50fc7809d64ff2000341015000100f6ffc3f0737bf81a...

0000  00 19 c3 e4 44 95 ff ff 43 01 81 0d 01 00 2d 00   ....D...C.....-.
0010  d1 d4 9f 5f 00 00 00 00 3f 44 0d 00 00 00 00 00   ..._....?D......
0020  1e 00 00 00 1e 00 00 00 00 00 00 00 00 00 00 00   ................
0030  02 00 00 00 00 00 00 00 04 02 00 00 00 00 00 00   ................
0040  23 b5 0f c7 80 9d 64 ff 20 00 34 10 15 00 01 00   #.....d. .4.....
0050  f6 ff c3 f0 73 7b f8 1a 4d a4 07 02 64 82         ....s{..M...d.

No.     Time           Source                Destination           Protocol Length Info
   1528 23.046446      1.13.1                host                  USB      94     URB_INTERRUPT in

Frame 1528: 94 bytes on wire (752 bits), 94 bytes captured (752 bits) on interface 0
USB URB
    [Source: 1.13.1]
    [Destination: host]
    URB id: 0xffff9544e4c31900
    URB type: URB_COMPLETE ('C')
    URB transfer type: URB_INTERRUPT (0x01)
    Endpoint: 0x81, Direction: IN
    Device: 13
    URB bus id: 1
    Device setup request: not relevant ('-')
    Data: present (0)
    URB sec: 1604310225
    URB usec: 875467
    URB status: Success (0)
    URB length [bytes]: 30
    Data length [bytes]: 30
    [Request in: 1527]
    [Time from request: 0.006003000 seconds]
    [bInterfaceClass: Unknown (0xffff)]
    Unused Setup Header
    Interval: 2
    Start frame: 0
    Copy of Transfer Flags: 0x00000204
    Number of ISO descriptors: 0
Leftover Capture Data: 23b50fca80885bff2d00341014000100f6fff377b615f81a...

0000  00 19 c3 e4 44 95 ff ff 43 01 81 0d 01 00 2d 00   ....D...C.....-.
0010  d1 d4 9f 5f 00 00 00 00 cb 5b 0d 00 00 00 00 00   ..._.....[......
0020  1e 00 00 00 1e 00 00 00 00 00 00 00 00 00 00 00   ................
0030  02 00 00 00 00 00 00 00 04 02 00 00 00 00 00 00   ................
0040  23 b5 0f ca 80 88 5b ff 2d 00 34 10 14 00 01 00   #.....[.-.4.....
0050  f6 ff f3 77 b6 15 f8 1a 4d a4 07 02 64 82         ...w....M...d.

No.     Time           Source                Destination           Protocol Length Info
   1530 23.048470      1.13.1                host                  USB      94     URB_INTERRUPT in

Frame 1530: 94 bytes on wire (752 bits), 94 bytes captured (752 bits) on interface 0
USB URB
    [Source: 1.13.1]
    [Destination: host]
    URB id: 0xffff9544e4c31900
    URB type: URB_COMPLETE ('C')
    URB transfer type: URB_INTERRUPT (0x01)
    Endpoint: 0x81, Direction: IN
    Device: 13
    URB bus id: 1
    Device setup request: not relevant ('-')
    Data: present (0)
    URB sec: 1604310225
    URB usec: 877491
    URB status: Success (0)
    URB length [bytes]: 30
    Data length [bytes]: 30
    [Request in: 1529]
    [Time from request: 0.001999000 seconds]
    [bInterfaceClass: Unknown (0xffff)]
    Unused Setup Header
    Interval: 2
    Start frame: 0
    Copy of Transfer Flags: 0x00000204
    Number of ISO descriptors: 0
Leftover Capture Data: 23b50fcd807359ff2600291015000400f5ff3f0b8fb7f81a...

0000  00 19 c3 e4 44 95 ff ff 43 01 81 0d 01 00 2d 00   ....D...C.....-.
0010  d1 d4 9f 5f 00 00 00 00 b3 63 0d 00 00 00 00 00   ..._.....c......
0020  1e 00 00 00 1e 00 00 00 00 00 00 00 00 00 00 00   ................
0030  02 00 00 00 00 00 00 00 04 02 00 00 00 00 00 00   ................
0040  23 b5 0f cd 80 73 59 ff 26 00 29 10 15 00 04 00   #....sY.&.).....
0050  f5 ff 3f 0b 8f b7 f8 1a 4d a4 07 02 64 82         ..?.....M...d.

No.     Time           Source                Destination           Protocol Length Info
   1534 23.052462      1.13.1                host                  USB      94     URB_INTERRUPT in

Frame 1534: 94 bytes on wire (752 bits), 94 bytes captured (752 bits) on interface 0
USB URB
    [Source: 1.13.1]
    [Destination: host]
    URB id: 0xffff9544e4c31900
    URB type: URB_COMPLETE ('C')
    URB transfer type: URB_INTERRUPT (0x01)
    Endpoint: 0x81, Direction: IN
    Device: 13
    URB bus id: 1
    Device setup request: not relevant ('-')
    Data: present (0)
    URB sec: 1604310225
    URB usec: 881483
    URB status: Success (0)
    URB length [bytes]: 30
    Data length [bytes]: 30
    [Request in: 1531]
    [Time from request: 0.003965000 seconds]
    [bInterfaceClass: Unknown (0xffff)]
    Unused Setup Header
    Interval: 2
    Start frame: 0
    Copy of Transfer Flags: 0x00000204
    Number of ISO descriptors: 0
Leftover Capture Data: 23b50fd0805e6bff2f00351014000100f6ff012edbd7f81a...

0000  00 19 c3 e4 44 95 ff ff 43 01 81 0d 01 00 2d 00   ....D...C.....-.
0010  d1 d4 9f 5f 00 00 00 00 4b 73 0d 00 00 00 00 00   ..._....Ks......
0020  1e 00 00 00 1e 00 00 00 00 00 00 00 00 00 00 00   ................
0030  02 00 00 00 00 00 00 00 04 02 00 00 00 00 00 00   ................
0040  23 b5 0f d0 80 5e 6b ff 2f 00 35 10 14 00 01 00   #....^k./.5.....
0050  f6 ff 01 2e db d7 f8 1a 4d a4 07 02 64 82         ........M...d.

No.     Time           Source                Destination           Protocol Length Info
   1540 23.058454      1.13.1                host                  USB      94     URB_INTERRUPT in

Frame 1540: 94 bytes on wire (752 bits), 94 bytes captured (752 bits) on interface 0
USB URB
    [Source: 1.13.1]
    [Destination: host]
    URB id: 0xffff9544e4c31900
    URB type: URB_COMPLETE ('C')
    URB transfer type: URB_INTERRUPT (0x01)
    Endpoint: 0x81, Direction: IN
    Device: 13
    URB bus id: 1
    Device setup request: not relevant ('-')
    Data: present (0)
    URB sec: 1604310225
    URB usec: 887475
    URB status: Success (0)
    URB length [bytes]: 30
    Data length [bytes]: 30
    [Request in: 1535]
    [Time from request: 0.005976000 seconds]
    [bInterfaceClass: Unknown (0xffff)]
    Unused Setup Header
    Interval: 2
    Start frame: 0
    Copy of Transfer Flags: 0x00000204
    Number of ISO descriptors: 0
Leftover Capture Data: 23b50fd380495bff1a002d1014000100f5ff6cdf8570f81a...

0000  00 19 c3 e4 44 95 ff ff 43 01 81 0d 01 00 2d 00   ....D...C.....-.
0010  d1 d4 9f 5f 00 00 00 00 b3 8a 0d 00 00 00 00 00   ..._............
0020  1e 00 00 00 1e 00 00 00 00 00 00 00 00 00 00 00   ................
0030  02 00 00 00 00 00 00 00 04 02 00 00 00 00 00 00   ................
0040  23 b5 0f d3 80 49 5b ff 1a 00 2d 10 14 00 01 00   #....I[...-.....
0050  f5 ff 6c df 85 70 f8 1a 4d a4 07 02 64 82         ..l..p..M...d.

No.     Time           Source                Destination           Protocol Length Info
   1542 23.060463      1.13.1                host                  USB      94     URB_INTERRUPT in

Frame 1542: 94 bytes on wire (752 bits), 94 bytes captured (752 bits) on interface 0
USB URB
    [Source: 1.13.1]
    [Destination: host]
    URB id: 0xffff9544e4c31900
    URB type: URB_COMPLETE ('C')
    URB transfer type: URB_INTERRUPT (0x01)
    Endpoint: 0x81, Direction: IN
    Device: 13
    URB bus id: 1
    Device setup request: not relevant ('-')
    Data: present (0)
    URB sec: 1604310225
    URB usec: 889484
    URB status: Success (0)
    URB length [bytes]: 30
    Data length [bytes]: 30
    [Request in: 1541]
    [Time from request: 0.001989000 seconds]
    [bInterfaceClass: Unknown (0xffff)]
    Unused Setup Header
    Interval: 2
    Start frame: 0
    Copy of Transfer Flags: 0x00000204
    Number of ISO descriptors: 0
Leftover Capture Data: 23b50fd680346bff2400371016000100f6fff34888e5f81a...

0000  00 19 c3 e4 44 95 ff ff 43 01 81 0d 01 00 2d 00   ....D...C.....-.
0010  d1 d4 9f 5f 00 00 00 00 8c 92 0d 00 00 00 00 00   ..._............
0020  1e 00 00 00 1e 00 00 00 00 00 00 00 00 00 00 00   ................
0030  02 00 00 00 00 00 00 00 04 02 00 00 00 00 00 00   ................
0040  23 b5 0f d6 80 34 6b ff 24 00 37 10 16 00 01 00   #....4k.$.7.....
0050  f6 ff f3 48 88 e5 f8 1a 4d a4 07 02 64 82         ...H....M...d.

No.     Time           Source                Destination           Protocol Length Info
   1544 23.064458      1.13.1                host                  USB      94     URB_INTERRUPT in

Frame 1544: 94 bytes on wire (752 bits), 94 bytes captured (752 bits) on interface 0
USB URB
    [Source: 1.13.1]
    [Destination: host]
    URB id: 0xffff9544e4c31900
    URB type: URB_COMPLETE ('C')
    URB transfer type: URB_INTERRUPT (0x01)
    Endpoint: 0x81, Direction: IN
    Device: 13
    URB bus id: 1
    Device setup request: not relevant ('-')
    Data: present (0)
    URB sec: 1604310225
    URB usec: 893479
    URB status: Success (0)
    URB length [bytes]: 30
    Data length [bytes]: 30
    [Request in: 1543]
    [Time from request: 0.003977000 seconds]
    [bInterfaceClass: Unknown (0xffff)]
    Unused Setup Header
    Interval: 2
    Start frame: 0
    Copy of Transfer Flags: 0x00000204
    Number of ISO descriptors: 0
Leftover Capture Data: 23b50fd9801f5fff2a002f1015000400f6ff09bdd195f81a...

0000  00 19 c3 e4 44 95 ff ff 43 01 81 0d 01 00 2d 00   ....D...C.....-.
0010  d1 d4 9f 5f 00 00 00 00 27 a2 0d 00 00 00 00 00   ..._....'.......
0020  1e 00 00 00 1e 00 00 00 00 00 00 00 00 00 00 00   ................
0030  02 00 00 00 00 00 00 00 04 02 00 00 00 00 00 00   ................
0040  23 b5 0f d9 80 1f 5f ff 2a 00 2f 10 15 00 04 00   #....._.*./.....
0050  f6 ff 09 bd d1 95 f8 1a 4d a4 07 02 64 82         ........M...d.

No.     Time           Source                Destination           Protocol Length Info
   1546 23.070457      1.13.1                host                  USB      94     URB_INTERRUPT in

Frame 1546: 94 bytes on wire (752 bits), 94 bytes captured (752 bits) on interface 0
USB URB
    [Source: 1.13.1]
    [Destination: host]
    URB id: 0xffff9544e4c31900
    URB type: URB_COMPLETE ('C')
    URB transfer type: URB_INTERRUPT (0x01)
    Endpoint: 0x81, Direction: IN
    Device: 13
    URB bus id: 1
    Device setup request: not relevant ('-')
    Data: present (0)
    URB sec: 1604310225
    URB usec: 899478
    URB status: Success (0)
    URB length [bytes]: 30
    Data length [bytes]: 30
    [Request in: 1545]
    [Time from request: 0.005981000 seconds]
    [bInterfaceClass: Unknown (0xffff)]
    Unused Setup Header
    Interval: 2
    Start frame: 0
    Copy of Transfer Flags: 0x00000204
    Number of ISO descriptors: 0
Leftover Capture Data: 23b50fdc800a58ff2f00381016000200f4ff148466ccf81a...

0000  00 19 c3 e4 44 95 ff ff 43 01 81 0d 01 00 2d 00   ....D...C.....-.
0010  d1 d4 9f 5f 00 00 00 00 96 b9 0d 00 00 00 00 00   ..._............
0020  1e 00 00 00 1e 00 00 00 00 00 00 00 00 00 00 00   ................
0030  02 00 00 00 00 00 00 00 04 02 00 00 00 00 00 00   ................
0040  23 b5 0f dc 80 0a 58 ff 2f 00 38 10 16 00 02 00   #.....X./.8.....
0050  f4 ff 14 84 66 cc f8 1a 4d a4 07 02 64 82         ....f...M...d.

No.     Time           Source                Destination           Protocol Length Info
   1548 23.072455      1.13.1                host                  USB      94     URB_INTERRUPT in

Frame 1548: 94 bytes on wire (752 bits), 94 bytes captured (752 bits) on interface 0
USB URB
    [Source: 1.13.1]
    [Destination: host]
    URB id: 0xffff9544e4c31900
    URB type: URB_COMPLETE ('C')
    URB transfer type: URB_INTERRUPT (0x01)
    Endpoint: 0x81, Direction: IN
    Device: 13
    URB bus id: 1
    Device setup request: not relevant ('-')
    Data: present (0)
    URB sec: 1604310225
    URB usec: 901476
    URB status: Success (0)
    URB length [bytes]: 30
    Data length [bytes]: 30
    [Request in: 1547]
    [Time from request: 0.001980000 seconds]
    [bInterfaceClass: Unknown (0xffff)]
    Unused Setup Header
    Interval: 2
    Start frame: 0
    Copy of Transfer Flags: 0x00000204
    Number of ISO descriptors: 0
Leftover Capture Data: 23b50fde80f55fff2100321016000100f5ffd16275c5f81a...

0000  00 19 c3 e4 44 95 ff ff 43 01 81 0d 01 00 2d 00   ....D...C.....-.
0010  d1 d4 9f 5f 00 00 00 00 64 c1 0d 00 00 00 00 00   ..._....d.......
0020  1e 00 00 00 1e 00 00 00 00 00 00 00 00 00 00 00   ................
0030  02 00 00 00 00 00 00 00 04 02 00 00 00 00 00 00   ................
0040  23 b5 0f de 80 f5 5f ff 21 00 32 10 16 00 01 00   #....._.!.2.....
0050  f5 ff d1 62 75 c5 f8 1a 4d a4 07 02 64 82         ...bu...M...d.

No.     Time           Source                Destination           Protocol Length Info
   1550 23.076453      1.13.1                host                  USB      94     URB_INTERRUPT in

Frame 1550: 94 bytes on wire (752 bits), 94 bytes captured (752 bits) on interface 0
USB URB
    [Source: 1.13.1]
    [Destination: host]
    URB id: 0xffff9544e4c31900
    URB type: URB_COMPLETE ('C')
    URB transfer type: URB_INTERRUPT (0x01)
    Endpoint: 0x81, Direction: IN
    Device: 13
    URB bus id: 1
    Device setup request: not relevant ('-')
    Data: present (0)
    URB sec: 1604310225
    URB usec: 905474
    URB status: Success (0)
    URB length [bytes]: 30
    Data length [bytes]: 30
    [Request in: 1549]
    [Time from request: 0.003979000 seconds]
    [bInterfaceClass: Unknown (0xffff)]
    Unused Setup Header
    Interval: 2
    Start frame: 0
    Copy of Transfer Flags: 0x00000204
    Number of ISO descriptors: 0
Leftover Capture Data: 23b50fe180e058ff1f00321016000100f5ff0ea7998ef81a...

0000  00 19 c3 e4 44 95 ff ff 43 01 81 0d 01 00 2d 00   ....D...C.....-.
0010  d1 d4 9f 5f 00 00 00 00 02 d1 0d 00 00 00 00 00   ..._............
0020  1e 00 00 00 1e 00 00 00 00 00 00 00 00 00 00 00   ................
0030  02 00 00 00 00 00 00 00 04 02 00 00 00 00 00 00   ................
0040  23 b5 0f e1 80 e0 58 ff 1f 00 32 10 16 00 01 00   #.....X...2.....
0050  f5 ff 0e a7 99 8e f8 1a 4d a4 07 02 64 82         ........M...d.

No.     Time           Source                Destination           Protocol Length Info
   1552 23.082439      1.13.1                host                  USB      94     URB_INTERRUPT in

Frame 1552: 94 bytes on wire (752 bits), 94 bytes captured (752 bits) on interface 0
USB URB
    [Source: 1.13.1]
    [Destination: host]
    URB id: 0xffff9544e4c31900
    URB type: URB_COMPLETE ('C')
    URB transfer type: URB_INTERRUPT (0x01)
    Endpoint: 0x81, Direction: IN
    Device: 13
    URB bus id: 1
    Device setup request: not relevant ('-')
    Data: present (0)
    URB sec: 1604310225
    URB usec: 911460
    URB status: Success (0)
    URB length [bytes]: 30
    Data length [bytes]: 30
    [Request in: 1551]
    [Time from request: 0.005968000 seconds]
    [bInterfaceClass: Unknown (0xffff)]
    Unused Setup Header
    Interval: 2
    Start frame: 0
    Copy of Transfer Flags: 0x00000204
    Number of ISO descriptors: 0
Leftover Capture Data: 23b50fe480cb61ff2000311017000100f6ff6132844df81a...

0000  00 19 c3 e4 44 95 ff ff 43 01 81 0d 01 00 2d 00   ....D...C.....-.
0010  d1 d4 9f 5f 00 00 00 00 64 e8 0d 00 00 00 00 00   ..._....d.......
0020  1e 00 00 00 1e 00 00 00 00 00 00 00 00 00 00 00   ................
0030  02 00 00 00 00 00 00 00 04 02 00 00 00 00 00 00   ................
0040  23 b5 0f e4 80 cb 61 ff 20 00 31 10 17 00 01 00   #.....a. .1.....
0050  f6 ff 61 32 84 4d f8 1a 4d a4 07 02 64 82         ..a2.M..M...d.

No.     Time           Source                Destination           Protocol Length Info
   1554 23.084474      1.13.1                host                  USB      94     URB_INTERRUPT in

Frame 1554: 94 bytes on wire (752 bits), 94 bytes captured (752 bits) on interface 0
USB URB
    [Source: 1.13.1]
    [Destination: host]
    URB id: 0xffff9544e4c31900
    URB type: URB_COMPLETE ('C')
    URB transfer type: URB_INTERRUPT (0x01)
    Endpoint: 0x81, Direction: IN
    Device: 13
    URB bus id: 1
    Device setup request: not relevant ('-')
    Data: present (0)
    URB sec: 1604310225
    URB usec: 913495
    URB status: Success (0)
    URB length [bytes]: 30
    Data length [bytes]: 30
    [Request in: 1553]
    [Time from request: 0.002017000 seconds]
    [bInterfaceClass: Unknown (0xffff)]
    Unused Setup Header
    Interval: 2
    Start frame: 0
    Copy of Transfer Flags: 0x00000204
    Number of ISO descriptors: 0
Leftover Capture Data: 23b50fe780b65aff310038101700fffff6fff77f468ef81a...

0000  00 19 c3 e4 44 95 ff ff 43 01 81 0d 01 00 2d 00   ....D...C.....-.
0010  d1 d4 9f 5f 00 00 00 00 57 f0 0d 00 00 00 00 00   ..._....W.......
0020  1e 00 00 00 1e 00 00 00 00 00 00 00 00 00 00 00   ................
0030  02 00 00 00 00 00 00 00 04 02 00 00 00 00 00 00   ................
0040  23 b5 0f e7 80 b6 5a ff 31 00 38 10 17 00 ff ff   #.....Z.1.8.....
0050  f6 ff f7 7f 46 8e f8 1a 4d a4 07 02 64 82         ....F...M...d.

No.     Time           Source                Destination           Protocol Length Info
   1556 23.088555      1.13.1                host                  USB      94     URB_INTERRUPT in

Frame 1556: 94 bytes on wire (752 bits), 94 bytes captured (752 bits) on interface 0
USB URB
    [Source: 1.13.1]
    [Destination: host]
    URB id: 0xffff9544e4c31900
    URB type: URB_COMPLETE ('C')
    URB transfer type: URB_INTERRUPT (0x01)
    Endpoint: 0x81, Direction: IN
    Device: 13
    URB bus id: 1
    Device setup request: not relevant ('-')
    Data: present (0)
    URB sec: 1604310225
    URB usec: 917576
    URB status: Success (0)
    URB length [bytes]: 30
    Data length [bytes]: 30
    [Request in: 1555]
    [Time from request: 0.004063000 seconds]
    [bInterfaceClass: Unknown (0xffff)]
    Unused Setup Header
    Interval: 2
    Start frame: 0
    Copy of Transfer Flags: 0x00000204
    Number of ISO descriptors: 0
Leftover Capture Data: 23b50fea80a163ff2c00351016000000f5ffc9da5bc4f81a...

0000  00 19 c3 e4 44 95 ff ff 43 01 81 0d 01 00 2d 00   ....D...C.....-.
0010  d1 d4 9f 5f 00 00 00 00 48 00 0e 00 00 00 00 00   ..._....H.......
0020  1e 00 00 00 1e 00 00 00 00 00 00 00 00 00 00 00   ................
0030  02 00 00 00 00 00 00 00 04 02 00 00 00 00 00 00   ................
0040  23 b5 0f ea 80 a1 63 ff 2c 00 35 10 16 00 00 00   #.....c.,.5.....
0050  f5 ff c9 da 5b c4 f8 1a 4d a4 07 02 64 82         ....[...M...d.

No.     Time           Source                Destination           Protocol Length Info
   1558 23.094457      1.13.1                host                  USB      94     URB_INTERRUPT in

Frame 1558: 94 bytes on wire (752 bits), 94 bytes captured (752 bits) on interface 0
USB URB
    [Source: 1.13.1]
    [Destination: host]
    URB id: 0xffff9544e4c31900
    URB type: URB_COMPLETE ('C')
    URB transfer type: URB_INTERRUPT (0x01)
    Endpoint: 0x81, Direction: IN
    Device: 13
    URB bus id: 1
    Device setup request: not relevant ('-')
    Data: present (0)
    URB sec: 1604310225
    URB usec: 923478
    URB status: Success (0)
    URB length [bytes]: 30
    Data length [bytes]: 30
    [Request in: 1557]
    [Time from request: 0.005877000 seconds]
    [bInterfaceClass: Unknown (0xffff)]
    Unused Setup Header
    Interval: 2
    Start frame: 0
    Copy of Transfer Flags: 0x00000204
    Number of ISO descriptors: 0
Leftover Capture Data: 23b50fed808c5dff270030101800fffff6ff91a8dd60f81a...

0000  00 19 c3 e4 44 95 ff ff 43 01 81 0d 01 00 2d 00   ....D...C.....-.
0010  d1 d4 9f 5f 00 00 00 00 56 17 0e 00 00 00 00 00   ..._....V.......
0020  1e 00 00 00 1e 00 00 00 00 00 00 00 00 00 00 00   ................
0030  02 00 00 00 00 00 00 00 04 02 00 00 00 00 00 00   ................
0040  23 b5 0f ed 80 8c 5d ff 27 00 30 10 18 00 ff ff   #.....].'.0.....
0050  f6 ff 91 a8 dd 60 f8 1a 4d a4 07 02 64 82         .....`..M...d.

No.     Time           Source                Destination           Protocol Length Info
   1560 23.096461      1.13.1                host                  USB      94     URB_INTERRUPT in

Frame 1560: 94 bytes on wire (752 bits), 94 bytes captured (752 bits) on interface 0
USB URB
    [Source: 1.13.1]
    [Destination: host]
    URB id: 0xffff9544e4c31900
    URB type: URB_COMPLETE ('C')
    URB transfer type: URB_INTERRUPT (0x01)
    Endpoint: 0x81, Direction: IN
    Device: 13
    URB bus id: 1
    Device setup request: not relevant ('-')
    Data: present (0)
    URB sec: 1604310225
    URB usec: 925482
    URB status: Success (0)
    URB length [bytes]: 30
    Data length [bytes]: 30
    [Request in: 1559]
    [Time from request: 0.001979000 seconds]
    [bInterfaceClass: Unknown (0xffff)]
    Unused Setup Header
    Interval: 2
    Start frame: 0
    Copy of Transfer Flags: 0x00000204
    Number of ISO descriptors: 0
Leftover Capture Data: 23b50ff080774eff2500311017000000f5ffe14cebeaf81a...

0000  00 19 c3 e4 44 95 ff ff 43 01 81 0d 01 00 2d 00   ....D...C.....-.
0010  d1 d4 9f 5f 00 00 00 00 2a 1f 0e 00 00 00 00 00   ..._....*.......
0020  1e 00 00 00 1e 00 00 00 00 00 00 00 00 00 00 00   ................
0030  02 00 00 00 00 00 00 00 04 02 00 00 00 00 00 00   ................
0040  23 b5 0f f0 80 77 4e ff 25 00 31 10 17 00 00 00   #....wN.%.1.....
0050  f5 ff e1 4c eb ea f8 1a 4d a4 07 02 64 82         ...L....M...d.

No.     Time           Source                Destination           Protocol Length Info
   1562 23.100454      1.13.1                host                  USB      94     URB_INTERRUPT in

Frame 1562: 94 bytes on wire (752 bits), 94 bytes captured (752 bits) on interface 0
USB URB
    [Source: 1.13.1]
    [Destination: host]
    URB id: 0xffff9544e4c31900
    URB type: URB_COMPLETE ('C')
    URB transfer type: URB_INTERRUPT (0x01)
    Endpoint: 0x81, Direction: IN
    Device: 13
    URB bus id: 1
    Device setup request: not relevant ('-')
    Data: present (0)
    URB sec: 1604310225
    URB usec: 929475
    URB status: Success (0)
    URB length [bytes]: 30
    Data length [bytes]: 30
    [Request in: 1561]
    [Time from request: 0.003969000 seconds]
    [bInterfaceClass: Unknown (0xffff)]
    Unused Setup Header
    Interval: 2
    Start frame: 0
    Copy of Transfer Flags: 0x00000204
    Number of ISO descriptors: 0
Leftover Capture Data: 23b50ff380625dff2e00311016000000f4ff81567c26f81a...

0000  00 19 c3 e4 44 95 ff ff 43 01 81 0d 01 00 2d 00   ....D...C.....-.
0010  d1 d4 9f 5f 00 00 00 00 c3 2e 0e 00 00 00 00 00   ..._............
0020  1e 00 00 00 1e 00 00 00 00 00 00 00 00 00 00 00   ................
0030  02 00 00 00 00 00 00 00 04 02 00 00 00 00 00 00   ................
0040  23 b5 0f f3 80 62 5d ff 2e 00 31 10 16 00 00 00   #....b]...1.....
0050  f4 ff 81 56 7c 26 f8 1a 4d a4 07 02 64 82         ...V|&..M...d.

No.     Time           Source                Destination           Protocol Length Info
   1564 23.106567      1.13.1                host                  USB      94     URB_INTERRUPT in

Frame 1564: 94 bytes on wire (752 bits), 94 bytes captured (752 bits) on interface 0
USB URB
    [Source: 1.13.1]
    [Destination: host]
    URB id: 0xffff9544e4c31900
    URB type: URB_COMPLETE ('C')
    URB transfer type: URB_INTERRUPT (0x01)
    Endpoint: 0x81, Direction: IN
    Device: 13
    URB bus id: 1
    Device setup request: not relevant ('-')
    Data: present (0)
    URB sec: 1604310225
    URB usec: 935588
    URB status: Success (0)
    URB length [bytes]: 30
    Data length [bytes]: 30
    [Request in: 1563]
    [Time from request: 0.006088000 seconds]
    [bInterfaceClass: Unknown (0xffff)]
    Unused Setup Header
    Interval: 2
    Start frame: 0
    Copy of Transfer Flags: 0x00000204
    Number of ISO descriptors: 0
Leftover Capture Data: 23b50ff6804d5bff3100251015000100f4ff65ff7e91f81a...

0000  00 19 c3 e4 44 95 ff ff 43 01 81 0d 01 00 2d 00   ....D...C.....-.
0010  d1 d4 9f 5f 00 00 00 00 a4 46 0e 00 00 00 00 00   ..._.....F......
0020  1e 00 00 00 1e 00 00 00 00 00 00 00 00 00 00 00   ................
0030  02 00 00 00 00 00 00 00 04 02 00 00 00 00 00 00   ................
0040  23 b5 0f f6 80 4d 5b ff 31 00 25 10 15 00 01 00   #....M[.1.%.....
0050  f4 ff 65 ff 7e 91 f8 1a 4d a4 07 02 64 82         ..e.~...M...d.

No.     Time           Source                Destination           Protocol Length Info
   1566 23.108559      1.13.1                host                  USB      94     URB_INTERRUPT in

Frame 1566: 94 bytes on wire (752 bits), 94 bytes captured (752 bits) on interface 0
USB URB
    [Source: 1.13.1]
    [Destination: host]
    URB id: 0xffff9544e4c31900
    URB type: URB_COMPLETE ('C')
    URB transfer type: URB_INTERRUPT (0x01)
    Endpoint: 0x81, Direction: IN
    Device: 13
    URB bus id: 1
    Device setup request: not relevant ('-')
    Data: present (0)
    URB sec: 1604310225
    URB usec: 937580
    URB status: Success (0)
    URB length [bytes]: 30
    Data length [bytes]: 30
    [Request in: 1565]
    [Time from request: 0.001966000 seconds]
    [bInterfaceClass: Unknown (0xffff)]
    Unused Setup Header
    Interval: 2
    Start frame: 0
    Copy of Transfer Flags: 0x00000204
    Number of ISO descriptors: 0
Leftover Capture Data: 23b50ff980385bff29002e1014000200f5ff221196d0f81a...

0000  00 19 c3 e4 44 95 ff ff 43 01 81 0d 01 00 2d 00   ....D...C.....-.
0010  d1 d4 9f 5f 00 00 00 00 6c 4e 0e 00 00 00 00 00   ..._....lN......
0020  1e 00 00 00 1e 00 00 00 00 00 00 00 00 00 00 00   ................
0030  02 00 00 00 00 00 00 00 04 02 00 00 00 00 00 00   ................
0040  23 b5 0f f9 80 38 5b ff 29 00 2e 10 14 00 02 00   #....8[.).......
0050  f5 ff 22 11 96 d0 f8 1a 4d a4 07 02 64 82         ..".....M...d.

No.     Time           Source                Destination           Protocol Length Info
   1568 23.112616      1.13.1                host                  USB      94     URB_INTERRUPT in

Frame 1568: 94 bytes on wire (752 bits), 94 bytes captured (752 bits) on interface 0
USB URB
    [Source: 1.13.1]
    [Destination: host]
    URB id: 0xffff9544e4c31900
    URB type: URB_COMPLETE ('C')
    URB transfer type: URB_INTERRUPT (0x01)
    Endpoint: 0x81, Direction: IN
    Device: 13
    URB bus id: 1
    Device setup request: not relevant ('-')
    Data: present (0)
    URB sec: 1604310225
    URB usec: 941637
    URB status: Success (0)
    URB length [bytes]: 30
    Data length [bytes]: 30
    [Request in: 1567]
    [Time from request: 0.004031000 seconds]
    [bInterfaceClass: Unknown (0xffff)]
    Unused Setup Header
    Interval: 2
    Start frame: 0
    Copy of Transfer Flags: 0x00000204
    Number of ISO descriptors: 0
Leftover Capture Data: 23b50ffc80235dff2c00341016000100f5ff13f7cfb7f81a...

0000  00 19 c3 e4 44 95 ff ff 43 01 81 0d 01 00 2d 00   ....D...C.....-.
0010  d1 d4 9f 5f 00 00 00 00 45 5e 0e 00 00 00 00 00   ..._....E^......
0020  1e 00 00 00 1e 00 00 00 00 00 00 00 00 00 00 00   ................
0030  02 00 00 00 00 00 00 00 04 02 00 00 00 00 00 00   ................
0040  23 b5 0f fc 80 23 5d ff 2c 00 34 10 16 00 01 00   #....#].,.4.....
0050  f5 ff 13 f7 cf b7 f8 1a 4d a4 07 02 64 82         ........M...d.

No.     Time           Source                Destination           Protocol Length Info
   1570 23.118449      1.13.1                host                  USB      94     URB_INTERRUPT in

Frame 1570: 94 bytes on wire (752 bits), 94 bytes captured (752 bits) on interface 0
USB URB
    [Source: 1.13.1]
    [Destination: host]
    URB id: 0xffff9544e4c31900
    URB type: URB_COMPLETE ('C')
    URB transfer type: URB_INTERRUPT (0x01)
    Endpoint: 0x81, Direction: IN
    Device: 13
    URB bus id: 1
    Device setup request: not relevant ('-')
    Data: present (0)
    URB sec: 1604310225
    URB usec: 947470
    URB status: Success (0)
    URB length [bytes]: 30
    Data length [bytes]: 30
    [Request in: 1569]
    [Time from request: 0.005806000 seconds]
    [bInterfaceClass: Unknown (0xffff)]
    Unused Setup Header
    Interval: 2
    Start frame: 0
    Copy of Transfer Flags: 0x00000204
    Number of ISO descriptors: 0
Leftover Capture Data: 23b50fff800e5cff2900331016000200f4ffc210ffe1f81a...

0000  00 19 c3 e4 44 95 ff ff 43 01 81 0d 01 00 2d 00   ....D...C.....-.
0010  d1 d4 9f 5f 00 00 00 00 0e 75 0e 00 00 00 00 00   ..._.....u......
0020  1e 00 00 00 1e 00 00 00 00 00 00 00 00 00 00 00   ................
0030  02 00 00 00 00 00 00 00 04 02 00 00 00 00 00 00   ................
0040  23 b5 0f ff 80 0e 5c ff 29 00 33 10 16 00 02 00   #.....\.).3.....
0050  f4 ff c2 10 ff e1 f8 1a 4d a4 07 02 64 82         ........M...d.

No.     Time           Source                Destination           Protocol Length Info
   1572 23.120466      1.13.1                host                  USB      94     URB_INTERRUPT in

Frame 1572: 94 bytes on wire (752 bits), 94 bytes captured (752 bits) on interface 0
USB URB
    [Source: 1.13.1]
    [Destination: host]
    URB id: 0xffff9544e4c31900
    URB type: URB_COMPLETE ('C')
    URB transfer type: URB_INTERRUPT (0x01)
    Endpoint: 0x81, Direction: IN
    Device: 13
    URB bus id: 1
    Device setup request: not relevant ('-')
    Data: present (0)
    URB sec: 1604310225
    URB usec: 949487
    URB status: Success (0)
    URB length [bytes]: 30
    Data length [bytes]: 30
    [Request in: 1571]
